:100000000C944F030C946C030C946C030C946C03D1
:100010000C946C030C946C030C946C030C946C03A4
:100020000C946C030C946C030C94A42C0C94762DFF
:100030000C941A230C946C030C946C030C946C03B6
:100040000C946C030C946C030C946C030C946C0374
:100050000C946C030C9482230C946C030C946C032E
:100060000C946C030C946C030C946C030C946C0354
:100070000C946C030C946C030C946C030C946C0344
:100080000C946C030C946C030C946C030C946C0334
:100090000C946C030C946C030C946C030C946C0324
:1000A0000C946C030C946C030C946C03C203C50396
:1000B000C803CB03CE03D103D40381078407890788
:1000C0008E07930798079D07A207A707AC07B107FC
:1000D000B607B807C407D207DD07E807F307F50737
:1000E00000084318431875187518BB18DB18341A24
:1000F000921A1D19BA19CB19CB192B1A921A921AE6
:100100008C1A221B221B341B341B2B1B341B341B4D
:10011000341B221B221B301B341B341B301BF426C8
:10012000EA2602275B27622762275B27622762276E
:10013000232762272D273727622762276227622716
:100140005B27622762275B276227102762276227C7
:10015000472747274727472747274727472747272F
:1001600047275D276227F426E72662276227622752
:1001700062276227622762276227622762275D273C
:10018000622762275B2762274527452745274527A2
:10019000452745274527452745275D27E32D0A2E77
:1001A000FC2E0A2EFC2E562E792EFC2ECF2EDE2E65
:1001B00029002B003900E100E00000001E001400BF
:1001C00004001D00E3002A001F001A0016001B0097
:1001D0002E41280020000800070006002D412C00B9
:1001E00021001500090019002F644C00220017009F
:1001F0000A00050000004B004C002E0000002F00FC
:1002000000004E0035002D000000300000004A00C4
:1002100023001C000B00110000004D0024001800FA
:100220000D00100030414C0025000C000E0036007F
:1002300050002C00260012000F003700510028004B
:10024000270013003300380052002A002A00310032
:100250003400E5004F000000010001000100010032
:10026000010000003A00010004011D01010001002D
:100270003B00010016011B01010001003C000100D0
:1002800007010601010001003D00010009011901FB
:10029000010001003E0001000A010501000001000B
:1002A0000100010000000100000001000100010048
:1002B00000000100000001003F00010001000100FA
:1002C00000000100400001002E022E00010001008C
:1002D000410001002D022D00AC00AE0042000100E3
:1002E00001003702AA0001004300010001000100E3
:1002F000A90001004400450001000100AB0000001E
:1003000000047F3F1F643214643214783C1E1E14B4
:100310000A052223252628292A2C2D2F3032333571
:1003200036383A3B3D3E4042434547494A4C4E50A1
:1003300051535557595A5C5E6062646668696B6DCB
:100340006F71737577797B7D7F81838587898A8CCF
:100350008E90929496989A9C9E9FA1A3A5A7A8AAD6
:10036000ACAEAFB1B3B4B6B8B9BBBCBEBFC1C2C30B
:10037000C5C6C7C9CACBCCCDCED0D1D2D2D3D4D5A5
:10038000D6D7D7D8D9D9DADADBDBDBDCDCDCDCDCCE
:10039000DDDDDDDDDCDCDCDCDCDBDBDBDADAD9D9A6
:1003A000D8D7D7D6D5D4D3D2D2D1D0CECDCCCBCA34
:1003B000C9C7C6C5C3C2C1BFBEBCBBB9B8B6B4B35A
:1003C000B1AFAEACAAA8A7A5A3A19F9E9C9A9896F0
:1003D0009492908E8C8A89878583817F7D7B7977C3
:1003E0007573716F6D6B6968666462605E5C5A59A3
:1003F00057555351504E4C4A4947454342403E3D64
:100400003B3A3836353332302F2D2C2A29282625F1
:100410002322FFAA7F5540000101010101010101D2
:1004200001020202020202020202030303030303A7
:100430000303040404040404040505050505060675
:100440000606060707070707080808080909090933
:100450000A0A0A0B0B0B0C0C0C0D0D0D0E0E0E0FD9
:100460000F0F101011111112121313141415151669
:10047000161717181819191A1A1B1B1C1D1D1E1EDA
:100480001F2020212222232424252626272829292B
:100490002A2B2C2D2D2E2F30313232333435363756
:1004A00038393A3B3C3D3E3F404142434445464754
:1004B00048494A4C4D4E4F50515354555658595A2D
:1004C0005B5D5E5F616264656668696B6C6D6F70D1
:1004D00072737577787A7B7D7E8082838587888A40
:1004E0008C8E8F91939596989A9C9EA0A2A3A5A777
:1004F000A9ABADAFB1B3B5B7BABCBEC0C2C4C6C973
:10050000CBCDCFD1D4D6D8DBDDDFE2E4E7E9EBEE2B
:10051000F0F3F5F8FAFDFF04033000000016034580
:1005200000720067006F0044006F007800200045F3
:10053000005A00000016034500720067006F004477
:10054000006F007800200045005A000000040309F5
:100550000409023B00020100A0FA090400000103A3
:10056000010100092111010001224000070581035A
:1005700008000A090401000103000000092111011B
:10058000000122C0000705820320000A12011001A9
:1005900000000008EDFE0713010001020301050140
:1005A0000902A10185020901A10005091901290516
:1005B00015002501950575018102950175038101DD
:1005C0000501093009311581257F950275088106DD
:1005D00009381581257F950175088106050C0A38B3
:1005E000021581257F950175088106C0C0050109A6
:1005F00080A10185031A81002A83001601002603C9
:1006000000950175108100C0050C0901A101850448
:100610001A01002A9C02160100269C029501751001
:100620008100C005010906A1018505050719E0291A
:10063000E7150025019508750181020507190029B4
:10064000EF1500250195F0750181020508190129B2
:1006500005950575019102950175039101C005018C
:100660000906A101050719E029E7150025019508EC
:10067000750181029501750881010507190029FF9F
:10068000150026FF00950675088100050819012947
:1006900005950575019102950175039101C011241D
:1006A0001FBECFEFDAE0DEBFCDBF12E0A0E0B1E0C9
:1006B000E8EFF1E602C005900D92A030B107D9F73E
:1006C00023E0A0E0B2E001C01D92AC38B207E1F730
:1006D0000E94CF290C94FA300C94000080B38C70E7
:1006E00080BB81B3836F81BB089584B1807F84B95F
:1006F00085B1807F85B98AB1837F8AB98BB1837FC9
:100700008BB93E9846980895CF93E82F873080F5AF
:100710008091060190910701892B09F047C0CE2FE7
:1007200064E670E080E40E94E713909307018093F1
:100730000601892BD1F464E670E082E10E943E1448
:100740009093070180930601892B79F481E090E072
:1007500001C0880FCA95EAF764E670E080950E94B0
:100760003E149093070180930601CF910C9493144B
:1007700090E0FC013797E730F105C0F4EA5AFF4FEB
:100780000C94662F209A289811C0219A29980EC09F
:10079000229A2A980BC0239A2B9808C0529A5A98EA
:1007A00005C0539A5B9802C03E9A4698CF9108952F
:1007B000CF93873008F03FC08091060190910701E8
:1007C000892B09F041C064E670E080E40E94E713E1
:1007D0009093070180930601892B11F0C0E027C098
:1007E00064E670E083E10E943E14909307018093D9
:1007F0000601892B99F764E670E081E40E94E71313
:100800009093070180930601892B41F784E690E0DD
:100810000E946E1497FF05C0909307018093060114
:10082000DDCFC82FC09510920701109206010E94DB
:1008300093148C2F0AC09FB18FB1807F86958695C7
:100840009370892B809501C080E0CF910895089521
:1008500008950C9428040E94D30590E0909307011A
:10086000809306010E9475030E946E03AFE0B2E020
:10087000E1E0F2E08EE08E0F11921D928E13FCCF1C
:100880008EE00E94F10A0C9403070E94D30590E0C9
:1008900090930701809306010E9475030E946E03E6
:1008A000E1E0F2E08EE08E0F11928E13FDCF0895FD
:1008B000CF92DF92EF92FF920F931F93CF93DF932C
:1008C0008091060190910701892B91F0809100029F
:1008D0008F5F8093000281110BC00E94D30590E0CE
:1008E0009093070180930601892B11F40E9445051E
:1008F0009FE0E92E92E0F92E06E112E0C0E0D12C53
:1009000087E0C82ECC0E8C2F0E9484038C2D0E9471
:1009100084038C2F0E94D803F7019081981719F057
:100920008083D1E001C0D0E08C2D0E94D803F80173
:100930009081981719F0808381E001C080E0D82B66
:10094000DD2A0E947503CF5FFFEFEF1AFF0A0F5FEA
:100950001F4FC730A9F62D2D4EE061E072E08FE009
:1009600092E00E94630B0E940D0781E0DF91CF911E
:100970001F910F91FF90EF90DF90CF900895E82F97
:10098000F0E0EF5FFD4F8081089508952BB1342F83
:10099000309523233BB1432B3FB7F894FC01680FFC
:1009A000791FE617F70789F0819198E04BB90000AD
:1009B00000C087FF2BB9880F000000C000C000C036
:1009C0002BB900C09A9591F7ECCF3FBF08952AB19B
:1009D000242B2AB9660F771F660F771F0E94C60463
:1009E0008FE391E00197F1F700C00000089540E81F
:1009F0000C94E7040F931F93CF93DF9380913203FE
:100A000080FF0AC00E94E11364E670E084E80E945F
:100A1000E713C0E0D0E00EC080E090E0FC01E95CAC
:100A2000FC4F118210821282138204968C3391053E
:100A3000A9F7E8CF8E01095C1C4F64E670E0F8016D
:100A400080810E943E1464E670E0F80181810E947A
:100A50003E1464E670E0F80182810E943E1464E670
:100A600070E0F80183810E943E142496CC33D105B6
:100A700009F70E9493146FE070E087E393E0DF9141
:100A8000CF911F910F910C94F70456985E9825987A
:100A90002D9826982E9827982F988FEF90E0909376
:100AA00089008093880090938B0080938A009093B4
:100AB0008D0080938C00259A2D9A2FEF80E792E08D
:100AC000215080409040E1F700C00000269A2E9A05
:100AD0002FEF80E792E0215080409040E1F700C086
:100AE0000000279A2F9A2FEF80E792E02150804054
:100AF0009040E1F700C0000025982D982FEF80E787
:100B000092E0215080409040E1F700C0000026981C
:100B10002E982FEF80E792E0215080409040E1F73F
:100B200000C0000027982F9856985E9825982D9819
:100B300026982E9827982F98089589EA8093800008
:100B400089E08093810024982C983F988AB18F7C0B
:100B50008AB96E98479A8BB180638BB9769A0E9456
:100B6000AD216093290370932A0380932B03909304
:100B70002C0367708FEF689FB001112475956795FE
:100B800075956795772770938900609388007093B7
:100B90008B0060938A0070938D0060938C000E949C
:100BA00045050C94270480E290E090930701809320
:100BB000060180911D0281110EC00E94E11381E0A7
:100BC00080931D022FEF83ED90E3215080409040F1
:100BD000E1F700C0000064E670E080E40E94E713E3
:100BE0009093070180930601892B09F04EC064E6BB
:100BF00070E080E00E943E1490930701809306010C
:100C0000892B09F042C064E670E080E00E943E1447
:100C10009093070180930601892BB9F564E670E093
:100C20008FE30E943E149093070180930601892B65
:100C300061F50E94931464E670E080E40E94E7137B
:100C40009093070180930601892BF9F464E670E024
:100C50008CE00E943E149093070180930601892B3B
:100C6000A1F464E670E080E00E943E1490930701D6
:100C700080930601892B49F464E670E08FE30E94BB
:100C80003E1490930701809306010E949314809173
:100C9000060108951092290310922A0310922B0343
:100CA00010922C0384E080618093290360912903D2
:100CB00070912A0380912B0390912C030E94B12103
:100CC0000C94BD219C013A9521153F4138F5DC017A
:100CD000AA27B270AC01442754709C0122273870B7
:100CE00094FF0FC090FF02C080E101C080E0AB2BF9
:100CF00009F08062452B09F08064232B69F080683D
:100D00000BC0892F8170AB2B09F08260452B09F055
:100D10008460232B09F08860FB0109940895CF9328
:100D2000DF93EC01805E9109089710F0209719F489
:100D300063E078E102C06AEE7AE1CE010E946206C9
:100D40008C2FDF91CF910C944F16CF93DF93EC0152
:100D50000E948817CE01805E9109089710F02097B5
:100D600019F46AE078E102C061EF7AE1CE01DF9127
:100D7000CF910C946206CF93DF93EC010E948F0613
:100D8000CE01DF91CF910C94A50681E0089581E01A
:100D900008950C94C7061F93CF93DF9300D000D023
:100DA0001F92CDB7DEB749835A83209156028981BD
:100DB0009A81211112C0662349F00E944920182F00
:100DC000682F89819A810E94EC1F03C00E941C2019
:100DD000182F69817A81812F04C00E94492069817E
:100DE0007A810F900F900F900F900F90DF91CF911D
:100DF0001F910C943D08FC014081518162817381F7
:100E000084810C94CB060E947C21811102C00E9437
:100E100019220E94BD0B0C949D050C942904282FC7
:100E20002F7041F0822F90E02A3010F44D960895F3
:100E30000697089587E290E0089508950C941D07A1
:100E400081E008950C942007CF93C82F0E941E07BD
:100E50008C2F0E942207CF91089508950E94121BA3
:100E60000E942D072FEF84E39CE0215080409040AA
:100E7000E1F700C000000C94A8230F931F93CF93B9
:100E8000DF938C010E94FB06EC01B8010E94C906A9
:100E9000882309F4E8C0B801CE010E94310C8823F0
:100EA00009F4E1C0B801CE010E948312882309F43D
:100EB000DAC0B801CE010E94C412882309F4D3C05D
:100EC000F8018281882309F49DC0C1158CE5D807FB
:100ED00039F0CE3DECE5DE0731F40E941922C3C0A3
:100EE0000E942E07C0C00E94C9208272FE01E25CEF
:100EF000FC45E431F10508F085C0E35AFF4F0C943E
:100F0000662F0E943411AFC0882329F00E94261159
:100F1000AAC08823D9F30E941911A5C0882329F0FB
:100F20000E943A10A0C08823D9F30E942D109BC0C4
:100F3000882329F00E94581096C08823D9F30E9474
:100F4000491091C0882329F00E9476108CC0882314
:100F5000D9F30E94671087C0882329F00E94280FC8
:100F600082C08823D9F30E94170F7DC081E009C099
:100F70000E94E50E823020F00E94E50E853058F286
:100F800082E00E9429116FC00E94E50E863038F081
:100F90000E94E50E883018F40E94191103C086E003
:100FA0000E9429110E94E50E893028F00E94E50E6A
:100FB0008E3008F4B0CF89E0E4CF0E94E50E8F3088
:100FC00028F00E94E50E843108F4A5CF8FE0D9CF38
:100FD0000E94E50E853128F00E94E50E873108F465
:100FE0009ACF85E1CECF88E1CCCF0E94E50E893142
:100FF00028F00E94E50E823208F48DCF89E1C1CF3E
:1010000083E2BFCFC631DC4539F50E94C920282FC5
:10101000F80182814091170150911801882379F0DD
:101020002A7A91E009F490E090931E02911102C097
:1010300069E201C065E3CA010E9485220AC080916D
:101040001E02811102C069E201C065E3CA010E946B
:1010500090220E94182107C0C801DF91CF911F91F3
:101060000F910C94C50680E0DF91CF911F910F91F5
:10107000089580E090E00895089596E0799FF0014A
:10108000112494E5899FE00DF11D1124E60FF11D57
:10109000EE0FFF1FE055FE4F859194910895880F44
:1010A000991FFC01E050FD4F859194910895CF93D5
:1010B000DF930E943D080E941A0AEC01811520E589
:1010C0009207F0F5811530E4930708F029C1883EB6
:1010D000910500F5803E910508F0A8C1883A910578
:1010E00070F4853A910508F0A4C08130910509F4A7
:1010F0009DC108F44EC1049708F098C14AC18F3BC6
:10110000910508F4A1C0803C910508F442C1805CBF
:101110009109F9C0811540E2940758F4C11581E0A6
:10112000D80708F083C1C03FD10508F432C1D065AB
:101130007DC1811520E3920708F0E9C09F70E3C0EC
:10114000811535E5930708F044C0811544E59407FF
:1011500008F0FDC0C11582E5D80708F5C11521E5E5
:10116000D20708F0E0C08C2F837021E030E002C08D
:10117000220F331F8A95E2F73C68CE0174E0969502
:1011800087957A95E1F78370382BCF70C695C69511
:1011900040E2C49FE0011124C22BD32B47C12C2F66
:1011A00026952695CE0183709927C115D34508F061
:1011B000BFC040E2249F90011124C1E0D0E002C0F2
:1011C000CC0FDD1F8A95E2F72C2B3D2BE901DC6863
:1011D0002DC181154AE59407A0F4C11589E5D8070A
:1011E00008F0C4C0C11526E5D20708F4B5C0C11582
:1011F00038E5D30708F4CDC0DC2FCC27C06FD06A08
:1012000015C181159B4508F4C4C0C1158CE5D807EC
:1012100008F4BCC0CE0190568115904208F0B9C0C8
:101220008D2F8F710E94AE0ADD27D0628F71D82B6F
:10123000FDC0853A910509F4AFC0863A910509F0E1
:10124000AEC0C2E8D0E4F2C0883A910509F4AAC061
:10125000893A910509F4A9C08A3A910509F4A8C010
:101260008B3A910509F4A7C08C3A910509F4A6C000
:101270008B3B910509F4A5C08C3B910509F4A4C0F2
:101280008D3A910509F4A3C0803B910509F4A2C0F1
:101290008E3A910509F4A1C08F3A910509F4A0C0D6
:1012A000813B910509F49FC0823B910509F49EC0E2
:1012B000833B910509F49DC0843B910509F49CC0D2
:1012C000853B910509F49BC0863B910509F49AC0C2
:1012D000873B910509F499C0883B910509F498C0B2
:1012E000893B910509F497C08D3B910509F496C09F
:1012F0008E3B910509F495C08A3B910509F494C091
:10130000C0E0D4E493C00E944F08EC018FC099273D
:10131000D3FF03C0EC01D86C89C0EC01D06C86C04F
:10132000DF70D06A83C0DC2FCC27C16FD06A7EC04B
:1013300040E2249F90011124C1E0D0E002C0CC0F14
:10134000DD1F8A95E2F7C22BD32BDA686FC0D82F46
:10135000CC27C46FD06A6AC08C2F0E94AE0A8F71EE
:10136000C82FD0E0DC2FCC27D06260C08C2F8F70CC
:101370000E94AE0A94E0D695C7959A95E1F7CF7092
:10138000D0E0DC2FCC27D069C82B50C0DD27D06639
:101390004DC0C0E0D0E04AC0C1E8D0E447C0C3E8D7
:1013A000D0E444C0C2EED4E441C0C9EED4E43EC0AF
:1013B000CAEED4E43BC0C5EBD4E438C0C6EBD4E4F9
:1013C00035C0C3EBD4E432C0C4EBD4E42FC0C7EBC8
:1013D000D4E42CC0CCECD4E429C0CDECD4E426C0B9
:1013E000C3E8D5E423C0CAE8D5E420C0C2E9D5E407
:1013F0001DC0C4E9D5E41AC0C1E2D6E417C0C3E2F7
:10140000D6E414C0C4E2D6E411C0C5E2D6E40EC0EE
:10141000C6E2D6E40BC0C7E2D6E408C0CFE6D4E407
:1014200005C0C0E7D4E402C0CAE2D6E4CE01DF9131
:10143000CF9108958238910569F1B0F48133910517
:1014400009F46DC048F48932910509F463C08A3209
:10145000910509F469C008958533910509F455C0D3
:1014600089339105B9F00895833E910569F138F407
:10147000803E9105B1F0823E910509F10895863EC6
:101480009105A9F1873E9105B9F1843E910509F0D6
:1014900064C023C02091790320FD4FC021FD4DC0C1
:1014A00008958091790380FD44C080917A0380FF84
:1014B00044C08091790384FD42C083EE4DC0809189
:1014C000790382FF38C0F5CF8091790382FD33C064
:1014D00080917A0380FD31C0ECCF80917A0381FF47
:1014E00032C08091790384FD2AC087EE35C0809197
:1014F000790383FF26C0F5CF8091790383FD21C056
:1015000080917A0381FD1FC0ECCF8091790385FD26
:101510001CC01DC08091790385FD19C016C0809143
:10152000790386FD16C017C08091790386FD13C02C
:1015300010C089E311C082EE0FC080EE0DC080E0C4
:101540000BC086EE09C084EE07C089E205C085E3C2
:1015500003C08AE201C081E390E00895909179038D
:1015600092FF0DC0282F2871283019F4877F8460DE
:1015700006C0282F2471243011F48B7F886093FFDC
:101580000DC0282F2871283119F4877E846106C088
:10159000282F2471243111F48B7E886120917A03E5
:1015A00020FF0DC0382F3871383019F4877F8160E3
:1015B00006C0382F3171313011F48E7F886021FFE1
:1015C0000DC0282F2871283119F4877E816106C04B
:1015D000282F2171213111F48E7E886194FD877E40
:1015E0000895CF93C82F90E00E94782F8093200217
:1015F00090932102282FFC019BEF8E2F821B8C17CA
:1016000010F49193FACFCF9108950F931F93CF9336
:10161000DF9310921F0250912002E52FF0912102DA
:1016200040E0A62FB0E07BEFCAEFD0E09E2F951BE5
:101630009817D0F490819B3FA9F0292F30E06917CB
:1016400028F08D01021B130B980106C08E01021BAE
:10165000130B98012A0F3B1F2E31310514F07083B4
:1016600001C041E03196E2CF40931F02DF91CF915C
:101670001F910F910895CF93DF9310922202509102
:10168000200230911F02DB01EC01E52FF0912102D5
:1016900090E08E2F851B841778F489916C916817E0
:1016A00041F060816B3F21F420838C9331E001C0D5
:1016B00091E031961196EDCF30931F029093220264
:1016C000DF91CF910895DF92EF92FF920F931F93D6
:1016D000CF93DF9300D0CDB7DEB78C017B01D22E44
:1016E0004A830E944C236AEF70E00E943E2F282F0D
:1016F00080911F024A81882341F1622F842F298320
:101700000E94050B29814A81DD2069F0B701C801DB
:101710000F900F90DF91CF911F910F91FF90EF905D
:10172000DF900C943B0B80911F02882379F380910A
:1017300022028111EBCF0F900F90DF91CF911F917B
:101740000F91FF90EF90DF900895DD2081F3DECFC1
:10175000CF93DF9397FF0DC0FB012281222349F035
:10176000EC010E94D30BCE019F770E94140C0E94C3
:10177000FD0B81E0DF91CF9108958CE090E00E9415
:10178000B23090E0A0E0B0E080932D0390932E0360
:10179000A0932F03B0933003089560912D038CE044
:1017A00090E00C94C6300E94C920809331030E94BF
:1017B000DC2080912D03813071F048F0823081F07F
:1017C0008430A1F486EE0E94F01788E10DC082EE0D
:1017D0000E944F160BC088E193E00E94BB0606C032
:1017E00082EE0E944F1687E50E94F0178FE39CE976
:1017F0000197F1F700C00000089580912D0381301A
:1018000039F040F0823031F0843051F488E206C083
:101810008CE204C082EE0E94881702C00E94F0177A
:10182000809131030C94D9200F931F93CF93DF93B2
:101830008C01CCE0D0E0C8010C2E02C096958795B3
:101840000A94E2F78F700E940F070E94F017249706
:10185000CC3F8FEFD80779F7DF91CF911F910F9190
:1018600008950F931F93CF93DF93EC018B01FB013E
:101870008281882319F1C33EFCE5DF07C1F050F4F3
:10188000C13EECE5DE0781F0C23EFCE5DF07B1F4C6
:1018900081E010C0C43E8CE5D80759F0C53EECE5A8
:1018A000DE0761F484E006C010922D0305C082E0DB
:1018B00001C083E080932D030E94CD0BB801CE01BF
:1018C000DF91CF911F910F910C94A80BAF92BF9213
:1018D000CF92DF92FF920F931F93CF93DF93D62E79
:1018E000372FE82FF0E0711106C0E95EFB4F6491DD
:1018F000762F862F75C0C72FD0E0E95EFB4F24916D
:10190000F22E022F10E046E0649FC0011124EFEF99
:10191000F0E0BF010E943E2FAB016BEA6403C001FF
:10192000659F900D11248D0D911D8D0D911D982F8A
:10193000990F890FDF01AC1BBD0B0A9FB0010B9FF4
:10194000700D1A9F700D1124972F839FD0011124C1
:10195000AB2FBB276F01CA1ADB0A0C9DD0010D9D6E
:10196000B00D1C9DB00D11245F01A81AB108AC9EEA
:101970006001AD9ED00CBC9ED00C1124CD2DDD2776
:10198000EC1BFD0B0E9FE0010F9FD00D1E9FD00D95
:101990001124ED2F4230510591F04CF441155105C1
:1019A000E1F041305105B9F4E22F2B2F16C044303D
:1019B000510569F044F04630510579F00CC0E22F32
:1019C000272F9D2F0AC0272F9F2DEB2F06C0E72F13
:1019D000922F2D2F02C0E72F9B2F6E2F722F892F52
:1019E000DF91CF911F910F91FF90DF90CF90BF902B
:1019F000AF9008950895CF93DF93762FE901682F74
:101A0000842F0E94660C798368838A831B82DF910E
:101A1000CF9108950F931F93CF93DF93EC0100E0D4
:101A200010E080910A01282F30E0021713071CF5FF
:101A3000909126029801290F311D220F331F220F8A
:101A4000331F295C3C4F869590E04C81081719079D
:101A50001CF4442331F002C0411103C0409135030E
:101A600001C040E060913403809133030E94FB0C7D
:101A70000F5F1F4FD6CF0E94FA042C8130E02F5FFA
:101A80003F4F217033272C83DF91CF911F910F910E
:101A900008950F931F93CF93DF938C01FC018481F2
:101AA000958101968170992795838483C0E0D5E55F
:101AB00080910A01C817F0F42091260230E02C0F23
:101AC000311D220F331F220F331F295C3C4F4C2F37
:101AD0004695F80184819581840F911D8170409114
:101AE0003503609134038D9F802D11240E94FB0CDF
:101AF000CF5FDECFDF91CF911F910F910C94FA044D
:101B00000F931F93CF938091260290910B01891719
:101B100060F424E0829FF0011124E95CFC4F118203
:101B20001082128213828F5FF2CFC0E060910A01AF
:101B3000C61790F50C2F10E070E0C8010E94522FDC
:101B4000E0912602E80F80912402082E000C990BE8
:101B5000F0E0EE0FFF1FEE0FFF1F08171907A4F0AC
:101B600020910901022E000C330B2017310764F07D
:101B70009F01295C3C4F4091350360913403809173
:101B800033030E94FB0C06C0E95CFC4F11821082FB
:101B900012821382CF5FCACF0E94FA0420910801FB
:101BA00080912402820F8093240290910901920F68
:101BB0009093090119165CF4082E000C990B4091C2
:101BC0000A0150E041505109841795071CF02195F6
:101BD00020930801CF911F910F910895AF92BF926A
:101BE000CF92DF92EF92FF920F931F93CF93DF93E9
:101BF000FC01828180FF02C00FEF01C001E010E014
:101C00003FE0A32E80910A01181708F043C0C12EAF
:101C1000D12C80912602E601C80FD11DCC0FDD1F0B
:101C2000CC0FDD1FC95CDC4F198218821A821B821F
:101C300024E0E22EF12CB12C809125028B0D803115
:101C40002CF06A2D0E94302F892F05C087FF03C01A
:101C500090910A01890F082E000C990BC816D9061D
:101C600091F4809135038E9DA0018F9D500D11241C
:101C700055954795559547959E0160913403809100
:101C800033030E94FB0CB00EF1E0EF1AF108A1F64D
:101C90001F5FB8CF0E94FA0480912502013031F411
:101CA000811102C080910A01815007C090E0019625
:101CB00060910A0170E00E94522F80932502DF910B
:101CC000CF911F910F91FF90EF90DF90CF90BF9039
:101CD000AF900895FF920F931F93CF93DF93EC0182
:101CE000F12C0FEF10E060910A01F616E0F420915C
:101CF000260230E02F0D311D220F331F220F331F1C
:101D0000295C3C4F70E0C8010E94522F962F8C81B5
:101D10004091350360913403F99E800D11240E9497
:101D2000FB0CF394E0CF0E94FA049A818C8190FF1F
:101D300002C08F5F01C081508C83DF91CF911F91D2
:101D40000F91FF90089580913203282F269530E05F
:101D50002115310519F48170826005C025323105E5
:101D600024F08170886480933203089588E090E0C5
:101D70000C94BA30CF93DF9300D000D0CDB7DEB74C
:101D8000AB01BC0149835A836B837C830E94A30E01
:101D900049815A816B817C8188E090E00F900F909F
:101DA0000F900F90DF91CF910C94D830E2E3F3E0E5
:101DB00083E0808311828FEF82838383148260812A
:101DC0007181828193810C94BA0E8091320380FFDD
:101DD00002C08695089580E00895E2E3F3E08081F3
:101DE0008E7F808360817181828193810E94BA0E8F
:101DF00010922F022FEF80E792E021508040904018
:101E0000E1F700C000000C94FA04E2E3F3E0808103
:101E10008E7F808310922F022FEF80E792E0215077
:101E200080409040E1F700C000000C94FA048091DB
:101E30003603833018F48F5F80933603609132034A
:101E40007091330380913403909135030C94BA0E52
:101E500080913603882319F0815080933603609176
:101E600032037091330380913403909135030C94C5
:101E7000BA0E9091320390FF14C0909126022091E7
:101E80000B01921760F434E0939FF0011124E95C98
:101E9000FC4F81836083428313829F5FF2CF0C9457
:101EA000FA040895CF93DF9300D000D0CDB7DEB70A
:101EB0009091320390FF0AC09E012F5F3F4F0E9416
:101EC000FB0C4B8169818A810E94390F0F900F9022
:101ED0000F900F90DF91CF910895CF93DF93EC0196
:101EE000EC81F0E0EE5EFC4F4491E2E3F3E06281CE
:101EF00081810E94520F8C818F5F8C83DF91CF9103
:101F00000895CF93DF93EC01E2E3F3E04381628134
:101F10008C810E94520F8C818F5F8C83DF91CF91D7
:101F20000895AF92BF92CF92DF92EF92FF920F93FC
:101F30001F93CF93DF9300D000D0CDB7DEB7182F1B
:101F4000F62E042FE22E9091320390FF6DC0E92F00
:101F5000E695AE2FB0E0AF52BE4F8C9180932E022B
:101F60009E7F923061F49E012F5F3F4F812F0E9430
:101F7000FB0C4B8169818A810E94390F43C08230FA
:101F800019F4009135033EC0863019F410913303E3
:101F900039C08930D9F38931A9F5E9518E2F817083
:101FA000D82EE695F0E0EE5EFB4FA590B490C12CE4
:101FB000BB2460910A01C61618F5EC2DF0E0EA9DED
:101FC000C001EB9D900DFA9D900D112470E00E94D0
:101FD0003E2F812FD11002C0860F01C0861B909129
:101FE00026029F01290F311D220F331F220F331F9D
:101FF000295C3C4F402F6F2D0E94FB0CC394D9CF1E
:102000000E94FA0410933303F092340300933503D3
:10201000EE2051F0609132037091330380913403CC
:10202000909135030E94BA0E0F900F900F900F9071
:10203000DF91CF911F910F91FF90EF90DF90CF90A4
:10204000BF90AF900895E2E3F3E09181282F4381A0
:1020500062818CE0890F0C94910F81E00C94231025
:10206000E2E3F3E09181282F4381628184EF890FBD
:102070000C94910F81E00C943010E2E3F3E0628164
:102080002FEF620F08F46FEF282F438181810C94AA
:10209000910F81E00C943D10E2E3F3E062812FEFB9
:1020A000621B08F460E0282F438181810C94910F1A
:1020B00081E00C944C10E2E3F3E043812CE0420F0A
:1020C00008F44FEF282F628181810C94910F81E0F9
:1020D0000C945B10E2E3F3E043812CE0421B08F434
:1020E00040E0282F628181810C94910F81E00C9453
:1020F0006A1020E00C94910F0F931F93CF93DF93FE
:1021000000D000D0CDB7DEB78C01809123028111C1
:102110000AC09E012F5F3F4F4FEF6FEF0E94FB0CF5
:102120008A8180932302F8018481813051F028F064
:10213000823061F4409123020AC08091230240E082
:1021400007C06091230240E080E003C040E080E0EF
:1021500060E00E94390FF801248130E0C901019646
:1021600063E070E00E94522F84830F900F900F90D5
:102170000F90DF91CF911F910F91089560913203DD
:10218000669570E04BE050E08CE091E00E94A53055
:10219000892B19F481E080932F020E944C239093A5
:1021A00028028093270208959091320390FF35C052
:1021B0009170811102C0926006C0853210F098645F
:1021C00002C0880F982B90933203662351F06091E0
:1021D00032037091330380913403909135030E9450
:1021E000BA0E60913203669570E04BE050E08CE0EF
:1021F00091E00E94A530892B19F010922F0202C0A5
:102200000E94BE1081E080932A02409135036091C4
:102210003403809133030C9479100895682F9091C2
:102220003203969581E0890F853208F081E00C94A5
:10223000D41081E00C940E11682F90913203969582
:102240008FEF890F09F484E20C94D41081E00C9490
:102250001C1161E00C94D410E2E3F3E08081816012
:10226000808386950C9429118091320380FD0C9413
:10227000ED0E0C942C1160E00C94D41080912D0282
:1022800081112EC00E947C21811104C00E9419225C
:102290000E94D60E0E94B60E6093320370933303F1
:1022A00080933403909335036E7F61F40E94D60EC1
:1022B0000E94B60E6093320370933303809334030D
:1022C000909335030E94A30E10922F028091320347
:1022D00080FF03C086950E943B1181E080932D0210
:1022E0000895E2E3F3E080818160808386950C9419
:1022F0003B1110922F0208950F931F93CF93DF93FA
:1023000080912F02882309F48CC080912E02E091E5
:102310003203E695E81BE0932902823049F4F0E0AD
:10232000E25FFC4FE491CE2FD0E00DE61FE049C004
:10233000863049F4F0E0E55FFC4FE491CE2FD0E029
:1023400001E81FE03EC0893051F4E695F0E0E85F17
:10235000FC4FE491CE2FD0E00AE61EE032C08F3071
:1023600051F4E695F0E0EB5FFC4FE491CE2FD0E026
:102370000EEE1DE026C0853149F4F0E0EE5FFC4F23
:10238000E491CE2FD0E000E81DE01BC0883181F041
:10239000833239F4E0E0F3E0C591D4910CE710E129
:1023A00010C0843251F4C4EFD1E00AE01DE009C04E
:1023B000C8EED3E009E41DE004C0C0EDD7E00AEFA9
:1023C0001CE080912A02882389F010922A020E9440
:1023D0004C239E0120953095820F931F90932802E5
:1023E0008093270210922C0210922B0280912702D8
:1023F000909128020E9458238C179D0790F0E0913D
:102400002702F0912802CE0FDF1FD0932802C0933D
:10241000270287E292E0F801DF91CF911F910F919F
:102420000994DF91CF911F910F9108950F931F93FE
:10243000CF93DF93C62FD42F022FFC0182818823F4
:10244000C9F0609332020E944C2390933102809332
:10245000300280E28C0F883008F050C0C77081E0F5
:1024600001C0880FCA95EAF7DF91CF911F910F91B4
:102470000C94031810913202161330C08091300270
:10248000909131020E945823883C910538F5C0E2B2
:10249000CD0F1D17B9F080E2810F883040F417701E
:1024A00081E001C0880F1A95EAF70E940A18C83027
:1024B00048F481E09D2F977001C0880F9A95EAF744
:1024C0000E940318802F0E94F017C830B8F4D7700C
:1024D00081E001C0880FDA95EAF70AC080E28C0F2C
:1024E000883060F4C77081E001C0880FCA95EAF7B0
:1024F000DF91CF911F910F910C940A18DF91CF912A
:102500001F910F9108959C01CB01233F4CE53407A7
:10251000F9F078F4283DFCE53F07B9F0293D4CE59A
:10252000340711F1273D3C4531F526E241EE61EEDD
:102530001EC0253FFCE53F0799F070F0263F3C4563
:10254000D1F427E245EE66EE12C027E245EE0EC05A
:1025500026E241EE60EE0BC027E245EE64EE07C0D6
:1025600026E241EE62EE03C028E241E065EE0E9401
:10257000161280E00895FC018281882319F01092E0
:102580003202089581E008951F93CF93DF93FB01FA
:102590001281112309F40FC1EC010E948F21909345
:1025A0007A0380937903C031FCE5DF0709F4C0C0EA
:1025B00008F041C0C830ECE5DE0709F497C0F0F43C
:1025C000C4308CE5D80709F486C068F4C230FCE555
:1025D000DF0709F476C0C330DC4509F0EDC0809117
:1025E0007903826075C0C630ECE5DE0709F46DC082
:1025F00008F078C08091790388606AC0CC308CE59F
:10260000D80709F482C068F4CA30FCE5DF0709F492
:1026100071C008F076C00E94121B80917903806817
:1026200057C0CE30ECE5DE0709F473C008F07CC07B
:102630008091790388C0CB3F8CE5D80709F44EC060
:1026400018F5C331FCE5DF0709F47AC078F4C1312D
:10265000ECE5DE0709F470C0C231DC4509F0ACC01E
:102660000E94121B809179038F7732C0C5318CE5AF
:10267000D80709F46FC008F485C0CA3FDC4509F0EB
:102680009BC080917A033BC0CF3F8CE5D80709F40B
:102690005CC050F4CD3FFCE5DF0709F441C0E8F130
:1026A00080917A0382602BC0C130EDE5DE0709F42A
:1026B00075C008F45BC0C230DD4509F07DC080E024
:1026C0006EC080917903816003C08091790380613D
:1026D0008093790366C0809179030FC080917A035B
:1026E00082604DC0809179038062F2CF809179033E
:1026F0008064EECF8091790388608460E9CF816047
:102700003EC0809179038E7FE3CF809179038D7FE6
:10271000DFCF80917903877FDBCF80917A0318C068
:1027200080917A038D7F2BC0809179038F7ED0CFEB
:10273000809179038F7DCCCF809179038F7BC8CF37
:1027400080917903877F8B7FC3CF80917A038D7FC0
:102750008E7F15C08091790382FB222720F991E0BA
:10276000922790FB82F990FB83F9B2CF80917A0394
:10277000982F909591708E7F892B90FB81F9809393
:102780007A030FC00E94121B8091790387FB2227D6
:1027900020F991E0922790FB87F99ACF81E00E947F
:1027A0001B228091790390917A030E94A0210E94BC
:1027B000121B10E001C011E0812FDF91CF911F911A
:1027C00008951092B9008CE08093B8000895EF92BC
:1027D000FF920F931F93CF93DF93182FEB0110926B
:1027E000BC0084EA8093BC000E944C237C01909141
:1027F000BC0097FD0EC0CF3F8FEFD807C1F30E94FA
:102800004C238E199F098C179D0788F38EEF9FEF3D
:102810002EC09091B900987F983041F09091B90006
:10282000987F903119F08FEF9FEF21C01093BB007C
:1028300084E88093BC000E944C238C019091BC00E2
:1028400097FD0CC0CF3F8FEFD807C1F30E944C23F8
:10285000801B910B8C179D0788F3D8CF8091B9000E
:10286000887F883111F08034F1F680E090E0DF91CC
:10287000CF911F910F91FF90EF9008950F931F93A9
:10288000CF93DF93EB018093BB0084E88093BC007F
:102890000E944C238C019091BC0097FD0EC0CF3F4D
:1028A0008FEFD807C1F30E944C23801B910B8C172C
:1028B0009D0788F38EEF9FEF0CC02091B900287F11
:1028C00081E090E0283211F480E090E091958195CC
:1028D0009109DF91CF911F910F9108950F931F934D
:1028E000CF93DF93EC0184E88093BC000E944C23DB
:1028F0008C019091BC0097FD0EC0CF3F8FEFD807A1
:10290000C1F30E944C23801B910B8C179D0788F309
:102910008EEF9FEF03C08091BB0090E0DF91CF91DD
:102920001F910F91089584E98093BC0008959093BE
:102930003802809337020895E0913702F09138020F
:10294000309721F00190F081E02D099480E0089506
:10295000E0913702F0913802309799F020912801E8
:10296000222359F02091790327FF07C0DC012C9125
:1029700011962C93119725E02C930280F381E02D82
:1029800009940895E0913702F0913802309739F0B8
:1029900022E0DC012C930480F581E02D0994089558
:1029A00020913502309136028217930771F090938F
:1029B000360280933502E0913702F0913802309769
:1029C00021F00680F781E02D0994089520913302CB
:1029D000309134028217930771F090933402809300
:1029E0003302E0913702F0913802309721F00084F1
:1029F000F185E02D0994089585B7806885BF85B776
:102A0000806885BF0895089508950C94041508956D
:102A10000C9407150E94FC140E9403150C940515D4
:102A200081E008950E9443230E942B040E94DA2330
:102A30000E943E110C940815CF92DF92EF92FF9204
:102A40000F931F93CF93DF93CDB7DEB72B970FB6BE
:102A5000F894DEBF0FBECDBF0E9458040E9410152F
:102A6000811111C08FEF89838A831B820E944C23BE
:102A70008160782F9D838C8349815A816B818D8100
:102A80000E94001656C08AE3C82E82E0D82E00E0CD
:102A900010E0E02E802F0E94BF04F60141916F01EB
:102AA000F42EF82631F40F5F1F4F0E30110589F711
:102AB000D9CF9091F50291FF04C08B870E94C50485
:102AC0008B8520E030E04F2D50E0922FBA01022E8E
:102AD00002C0759567950A94E2F760FF24C02E83C3
:102AE000EF8221E030E0690102C0CC0CDD1C9A9538
:102AF000E2F790E08C219D21892B09F420E02887C2
:102B00000E944C238160782F9A8789874E815F814C
:102B100068858A850E940016F801E65CFD4F808179
:102B2000C826C08206C02F5F3F4F2630310569F6A8
:102B3000BACF0E946C25109139020E949C1418177C
:102B4000A1F00E949C14809339022B960FB6F89442
:102B5000DEBF0FBECDBFDF91CF911F910F91FF90D0
:102B6000EF90DF90CF900C9424072B960FB6F8943B
:102B7000DEBF0FBECDBFDF91CF911F910F91FF90B0
:102B8000EF90DF90CF900895DC0111962C91119772
:102B90008C91682F70E041E050E001C0440F8A95AD
:102BA000EAF712968C91129730E0882329F08091F1
:102BB00058028823E9F006C0F901E85BFD4F9081D7
:102BC0009423B1F086E0829FF001839FF00D1124E1
:102BD000E60FF71FEE0FFF1FE75DFE4F808191812B
:102BE0008D939C93F901E85BFD4F8081482B06C0D3
:102BF000F901E85BFD4F40958081482340830895AB
:102C0000CF93DF93CDB7DEB72B970FB6F894DEBF27
:102C10000FBECDBF942F4F83252F588769877A87A2
:102C20008B874A855B85452B21F02F3F09F59F3F18
:102C3000F9F4DE01119686E0FD0111928A95E9F71B
:102C400085E0FE01379601900D928A95E1F7498162
:102C50005A816B817C818D819E810E94BC1D2B9647
:102C60000FB6F894DEBF0FBECDBFDF91CF910895B0
:102C7000CE0107960E94C415DCCFFC0180819181B2
:102C80000E948A2092959F70963041F4809158025C
:102C900091E0892780935802909357020895CF932B
:102CA000DF931F92CDB7DEB7882309F42DC1682FBB
:102CB0008238C1F40E949C1481FD26C169E3809191
:102CC0001701909118010E9485220E9418212FEF70
:102CD00081EE94E0215080409040E1F700C0000078
:102CE00069E319C0833811F50E949C1480FD0CC162
:102CF00063E580911701909118010E9485220E943E
:102D000018212FEF81EE94E0215080409040E1F7B0
:102D100000C0000063E580911701909118010E94A6
:102D200090220F90DF91CF910C9418218438C1F438
:102D30000E949C1482FDE8C067E480911701909185
:102D400018010E9485220E9418212FEF81EE94E045
:102D5000215080409040E1F700C0000067E4DBCFE5
:102D60008CEF860F813A70F4862F69830E94752755
:102D700069818111C9C080911701909118010E9449
:102D80008522CFCF80E2860F883048F4677081E0DB
:102D900001C0880F6A95EAF70E94CC20C2CF8BE56C
:102DA000860F833088F4653A29F0663A31F083E87B
:102DB00090E005C081E890E002C082E890E00F90CA
:102DC000DF91CF910C94D01488E5860F873108F0FD
:102DD00091C0683A09F445C0693A09F445C06A3AB5
:102DE00009F445C06B3A09F445C06C3A09F445C092
:102DF0006B3B09F445C06C3B09F445C06D3A09F4DE
:102E000045C0603B09F445C06E3A09F445C06F3ACD
:102E100009F445C0613B09F445C0623B09F445C073
:102E2000633B09F445C0643B09F445C0653B09F4C4
:102E300045C0663B09F445C0673B09F445C0683BA3
:102E400009F445C0693B09F445C06D3B09F445C030
:102E50006E3B09F445C06A3B09F445C080E090E050
:102E600044C082EE90E041C089EE90E03EC08AEE20
:102E700090E03BC085EB90E038C086EB90E035C039
:102E800083EB90E032C084EB90E02FC087EB90E0C2
:102E90002CC08CEC90E029C08DEC90E026C083E83B
:102EA00091E023C08AE891E020C082E991E01DC052
:102EB00084E991E01AC081E292E017C083E292E0D7
:102EC00014C084E292E011C085E292E00EC086E276
:102ED00092E00BC087E292E008C08FE690E005C068
:102EE00080E790E002C08AE292E00F90DF91CF91FC
:102EF0000C94E614603F40F0862F0E9474240F90DB
:102F0000DF91CF910C9461250F90DF91CF910895BF
:102F1000882309F464C0823879F40E949C1481FFEC
:102F20005EC069E380911701909118010E9485228B
:102F30000E94182169E310C08338B1F40E949C14E8
:102F400080FF4DC063E580911701909118010E94A8
:102F500085220E94182163E5809117019091180144
:102F60000E9490220C941821843879F40E949C14B9
:102F700082FF35C067E480911701909118010E948B
:102F800085220E94182167E4E7CF9CEF980F913AC1
:102F900010F4682FE1CF90E2980F983050F48770CA
:102FA00091E001C0990F8A95EAF7892F0E94D220FB
:102FB000D9CF9BE5980F933020F480E090E00C94FB
:102FC000D01498E5980F973120F480E090E00C94AD
:102FD000E614803F20F00E94DC240C9461250895C3
:102FE000CF93C82F0E944F16C93349F42FEF87EEB5
:102FF00093E0215080409040E1F700C000008C2F0A
:10300000CF910C948817882321F00E94CC200C9437
:1030100018210895882321F00E94D2200C941821B1
:103020000895BF92CF92DF92EF92FF920F931F937A
:10303000CF93DF937C01062FC72FFC0115811295DA
:103040001F70D281D1110E94EC200E94C2208823DF
:1030500079F0DD2369F080E2800F883048F082E06B
:103060000E9463210E94C22091E0B82EB92601C0BF
:10307000B12CCC2EC2948FE0C822D12CF601EF588F
:10308000FF4F0C94662F8C2F807FCF70882311F018
:10309000C295C07FDD2399F0CC2309F4C7C180E23B
:1030A000800F883010F0011104C08C2F0E94CC20BA
:1030B00003C08C2F0E94DF200E941821B7C1802FEF
:1030C0000E948817CC2309F42DC280E2800F88303B
:1030D00010F0011104C08C2F0E94D22003C08C2F4D
:1030E0000E94E5200E9418211DC28C2F807FCF7086
:1030F000803211F0C295C07F002319F00130C9F071
:1031000024C0DD2371F0112341F0113031F40E940D
:10311000FF208C2B0E94052105C20E94FF208C2BD2
:103120000EC0112319F0113009F4FCC10E940E21C8
:103130001EC0DD2339F0123008F0F4C18C2F0E943C
:103140000318F0C11111EEC112C0DD2319F01123D3
:10315000A9F36CC1112359F0093309F078C1FFEFCD
:1031600027EE83E0F15020408040E1F76EC18C2FC4
:103170000E940A18D7C18C2F86958695837090E09F
:10318000009719F0019761F0CDC1DD2321F0802F68
:103190009C2F937002C080E090E00E94D014CDC1BB
:1031A000DD2321F0802F9C2F937002C080E090E0FF
:1031B0000E94E614C2C1DD23F9F0053F51F0063F3D
:1031C00071F0043FA9F480917303909174038160BE
:1031D0000BC08091730390917403826005C080914D
:1031E00073039091740384609093740380937303CA
:1031F000802F0E9474241EC0053F51F0063F71F0DD
:10320000043FA9F480917303909174038E7F0BC0E7
:1032100080917303909174038D7F05C08091730337
:10322000909174038B7F9093740380937303802F2A
:103230000E94DC240E94612580C18C2F837009F0DC
:1032400049C0D11176C1402F429546954770440F31
:10325000440F602F6F70862F90E0A0E0B0E0042E46
:1032600004C0880F991FAA1FBB1F0A94D2F704FF3E
:1032700010C00FE010E020E030E004C0000F111F8C
:10328000221F331F4A95D2F700951095209530954F
:1032900003C000E010E09801C695C695C370D0E069
:1032A000BC01CD01602B712B822B932BC230D10539
:1032B00059F0C330D10559F0219719F00E94011F30
:1032C00038C10E94EF1E35C10E94131F32C10E94F7
:1032D000ED1E2FC1DD2319F08C2F817001C0869562
:1032E000882309F426C1402F429546954770440F24
:1032F000440F602F6F70862F90E0A0E0B0E0042EA6
:1033000004C0880F991FAA1FBB1F0A94D2F704FF9D
:1033100010C00FE010E020E030E004C0000F111FEB
:10332000221F331F4A95D2F70095109520953095AE
:1033300003C000E010E09801C695C695C370D0E0C8
:10334000BC01CD01602B712B822B932BC230D10598
:1033500059F0C330D10559F0219719F00E94C71FC9
:10336000E8C00E94B51FE5C00E94D91FE2C00E94BC
:10337000281FDFC0CF70DD2339F08C2F0E944E1F35
:10338000802F0E940318D5C0802F0E940A188C2F0E
:103390000E946F1FCEC0023FF9F028F4003F41F0B9
:1033A000013F99F03FC0033FF1F0043F31F13AC0D3
:1033B000DD2339F01111B6C08C2F8F710E94941F3C
:1033C000B1C0123008F0AEC0F7CFDD2339F08C2F3A
:1033D0008F710E944E1FA6C0DD23C9F38C2F8F7101
:1033E0000E946F1F9FC0DD2329F08C2F8F710E94D8
:1033F000391F98C00E94341F95C0DD2349F0CF715A
:103400008C2F0E944E1F63E08C2F0E944E218AC099
:1034100081E00E946321123008F484C082E00E949F
:10342000632180C0DD2331F0112389F2802F0E94B7
:103430004F1678C0112391F2093349F49FEFE7EE5C
:10344000F3E09150E040F040E1F700C00000802F31
:103450000E94881767C04C2F4F70602FC7010E94D1
:1034600039080E94601E69C0023FB1F028F4003F95
:1034700049F0013FF9F028C0043FB9F058F0053F8A
:1034800071F022C0DD2309F447C09091580281E019
:10349000892708C081E0D827D09358023DC0D111B8
:1034A0003BC081E08093580237C0D11135C01092E3
:1034B000580232C0DD2329F080915702882329F376
:1034C00029C0112311F328C0809157021123C1F0A4
:1034D000882341F09091580281E089278093580217
:1034E00010925702802FDD2319F00E944F1614C04E
:1034F0000E94881786E0F70111928A95E9F70CC0BF
:10350000882351F0D11108C09091580281E0892799
:1035100080935802109257024C2F4F70602FC701B2
:103520000E943C08F8E0CF1AD10824E0C216D1046A
:1035300020F40E949C140E942407BB20D1F00E941A
:10354000BE2080FD16C0F70112820E94B8200E94A2
:103550004E1FC7010E94C31A0E94B820DF91CF916D
:103560001F910F91FF90EF90DF90CF90BF900C9440
:103570006F1FDF91CF911F910F91FF90EF90DF9020
:10358000CF90BF9008950F931F93CF93DF93EC01DB
:10359000888199812B813C81232BB9F09F3F11F4C5
:1035A0008F3F99F0CE010E943D07882371F068811A
:1035B00079818A810E9495208C010E94EB1F0E94D4
:1035C000EC1EB801CE010E941118DF91CF911F911E
:1035D0000F910895882321F00E94DF200C94182178
:1035E0000895882321F00E94E5200C941821089565
:1035F0000E94EC200E94FC200E9418210E940726B5
:103600000E94612580E090E00E94D01480E090E06C
:103610000C94E61480911701909118010E949B224E
:103620000C94F81A0E94DC200C940A1BE92FE295F6
:10363000EF70F0E03297EE30F105B0F4EF57FF4F46
:103640000C94662F803F91F018F4883E68F40EC009
:10365000843F51F40BC0883E48F0813F29F406C0F6
:1036600093FB882780F9089580E0089581E008950C
:103670000E948A200E94161B0895CF93DF9300D0EA
:1036800000D01F92CDB7DEB70F900F900F900F9024
:103690000F90DF91CF910895CF93DF9300D000D0AA
:1036A00000D0CDB7DEB726960FB6F894DEBF0FBEBA
:1036B000CDBFDF91CF9108951F93CF93DF93C0913A
:1036C000590216E080915A02C81799F0D0E01C9F69
:1036D000F0011D9FF00D1124E55AFD4F40815181ED
:1036E00062817381848195810E944C1B2196C770F1
:1036F000E9CFDF91CF911F91089540918B025091B6
:103700008C0260918D0270918E0280918F02909157
:1037100090020C944C1B8091900282958F7009F05E
:1037200054C080918D02882309F44FC080915902C2
:10373000A0915A0260918B0270918C0240918E028E
:1037400050918F02B6E08A1709F43FC090E041150E
:103750005105C1F17F3F11F46F3FA1F1B89FF00116
:10376000B99FF00D1124E55AFD4F218172132AC033
:103770002081621327C02281211124C0238134813A
:103780002417350710F421503109241B350B283C30
:103790003105C0F4209190022F7020612093900297
:1037A00026E0289FF001299FF00D1124E05AFD4FDB
:1037B00080818F70806180838BE892E00E94C31AC1
:1037C0000C945C1B01968770BECF0895CF92DF9258
:1037D000EF92FF920F931F93CF93DF93CDB7DEB796
:1037E00062970FB6F894DEBF0FBECDBF8C0185E0A7
:1037F000F801DE011D9601900D928A95E1F7D8013E
:103800004C9111965C91119712966C9112971396A8
:10381000CD90DC90149730918B0270918C02809146
:103820008E0290918F02009709F46BC17F3F19F4CB
:103830003F3F09F466C1E0908D02EE2009F4C0C05C
:1038400020919002C816D90628F0F601E81BF90B62
:10385000CF0104C0809590958C0D9D1DFF24F3949D
:10386000883C910578F0F12C207F09F0C6C07C2DB2
:10387000D98AC88A89890E943D1B8BE892E00E9400
:10388000C31AB1C0822F807F09F046C0751314C0DF
:10389000341312C0611110C02F7020612093900268
:1038A0000E947D1B8BE892E00E94C31A80919002D7
:1038B000D80115968C932EC0CD2819F15F3F11F4D5
:1038C0004F3FF9F0F62E61111CC0809159022091F2
:1038D0005A0236E0821709F45AC090E0389FF0018E
:1038E000399FF00D1124E55AFD4F7181571306C021
:1038F0007081471303C07281711103C001968770F4
:10390000E9CFF62E662309F427C1809190028160E9
:1039100080939002F12C20C1751308C0341306C0A7
:10392000611104C080919002D801C3C04D875E87A9
:103930008D859E856A8B0E94381B6A898823E1F1F8
:103940006623D1F120919002822F82958F7090E0B2
:10395000029774F080918B0290918C0298878F83EC
:103960001986DB86CA862C87CE0107960E94C31A69
:1039700086E0F801ABE8B2E001900D928A95E1F79C
:103980000E948B1B0E947D1BFF24F394E5C04D8792
:103990005E878D859E850E948A20292F22952F7013
:1039A00030E0223031050CF0CBC09F7009F0C5C06B
:1039B000805E883008F4D0C0C8010E94C31AE4CFEA
:1039C000C816D90608F453C0F601E81BF90BCF015D
:1039D000883C910508F450C0F12C7C2DD98AC88A06
:1039E00089890E943D1BEBE8F2E086E0DF011D9231
:1039F0008A95E9F70E947D1BAFC0751314C034137C
:103A000012C0611110C080919002F8018583C80135
:103A10000E94C31A86E0EBE8F2E0DF011D928A956E
:103A2000E9F7FE2C99C04D875E878D859E856A8B50
:103A30000E94381B6A89882309F4BECF662309F4E3
:103A4000BBCF20919002822F82958F7090E00297D9
:103A50000CF48ECF80918B0290918C029A83898393
:103A60001B82DD82CC822E83CE0101967FCF809592
:103A700090958C0D9D1DACCFF62E662309F49CCF3E
:103A800075132EC034132CC02091900220FD1FC04E
:103A9000822F82958F70D9F0D80115962C931597A7
:103AA0008F3049F08F5F982F9295907F822F8F7083
:103AB000892B15968C93C8010E94C31A86E0F801E1
:103AC000ABE8B2E001900D928A95E1F793CF86E0E2
:103AD000F801ABE8B2E001900D928A95E1F73CC0A5
:103AE0004D875E878D859E850E94381B811140CF52
:103AF00080919002816080939002C8010E94C31A55
:103B00002BC0662309F458CF4D875E878D859E852F
:103B10000E94381BF82E882309F44ECF86E0F80166
:103B2000ABE8B2E001900D928A95E1F78BE892E064
:103B30000E943D160E948B1B5DCF811139CF0CC0B6
:103B4000243031050CF038CF9F7009F431CFF801E3
:103B50009581907F09F02CCF8F2D62960FB6F89447
:103B6000DEBF0FBECDBFDF91CF911F910F91FF90B0
:103B7000EF90DF90CF9008951F93CF93DF93CDB751
:103B8000DEB72C970FB6F894DEBF0FBECDBF4F83C4
:103B9000588769877A878B879C87CE0107960E9412
:103BA000E61B882369F08F8198852A853B85232B26
:103BB000F1F19F3F09F063C08F3F09F060C037C04B
:103BC00086E0FE013796DE01119601900D928A95EE
:103BD000E1F76F817885EA85FB85309741F17F3F7A
:103BE00011F46F3F21F120915A0230E0C901019692
:103BF000877099274091590250E08417950709F47E
:103C000047C069837A83FD83EC8396E0929FD0015D
:103C1000939FB00D1124A55ABD4FFE01319601901E
:103C20000D929A95E1F780935A020E945C1B16E070
:103C30008091590290915A028917C1F1189FC001D1
:103C40001124855A9D4F0E94E61B882379F1E0914B
:103C500059021E9FF0011124E55AFD4F4081518108
:103C600062817381848195810E944C1B80915902ED
:103C700090E001968770992780935902D9CF4F81A0
:103C8000588569857A858B859C850E944C1BCFCF92
:103C90000E94121B10925A0210925902EBE8F2E0B5
:103CA00086E0DF011D928A95E9F7C1CF2C960FB609
:103CB000F894DEBF0FBECDBFDF91CF911F91089565
:103CC000EF92FF920F931F93CF93DF938C01892B79
:103CD00009F46CC0F12CEE24E394E8012196F8017C
:103CE0008491843740F4843008F051C0813081F0F1
:103CF000823019F15BC0853709F444C0A8F19CE714
:103D0000980F903708F052C08F770E94881741C0F3
:103D10000E5F1F4FFE01C49180E28C0F883048F483
:103D2000C7708E2D01C0880FCA95EAF70E94EF2058
:103D300014C08C2F0E944F162DC00E5F1F4FFE0126
:103D4000C49180E28C0F883058F4C7708E2D01C06A
:103D5000880FCA95EAF70E94F5200E9418211AC020
:103D60008C2F0E94881716C00E5F1F4FFE01C49152
:103D7000CC2381F08FE99FE00197F1F700C00000AC
:103D8000C150F6CF0E5F1F4FFE01F49003C00E949A
:103D90004F168E018F2D882309F49FCFEFE9FFE0A6
:103DA0003197F1F700C000008150F5CFDF91CF913E
:103DB0001F910F91FF90EF90089508950C94DD1ED0
:103DC0000E94DE1E6093CC027093CD028093CE02DF
:103DD0009093CF020C94F81A08950C94E01E0F9360
:103DE0001F930091CC021091CD022091CE02309110
:103DF000CF02602B712B822B932B1F910F910C9470
:103E0000E01E0F931F930091CC021091CD022091E0
:103E1000CE023091CF0260237123822393231F911E
:103E20000F910C94E01E0F931F930091CC02109100
:103E3000CD022091CE023091CF02602771278227D8
:103E400093271F910F910C94E01E08950C94251F49
:103E50000E94261F6093C8027093C9028093CA0211
:103E60009093CB020C94F81A60E070E0CB010C94B4
:103E7000281F0F931F9341E050E060E070E08A013B
:103E80009B0104C0000F111F221F331F8A95D2F718
:103E9000C901B8011F910F910C94281F0F931F9314
:103EA00041E050E060E070E004C0440F551F661F21
:103EB000771F8A95D2F78091C8029091C902A0918C
:103EC000CA02B091CB028A019B01082B192B2A2B25
:103ED0003B2BC901B8011F910F910C94281F0F9320
:103EE0001F9341E050E060E070E004C0440F551FB4
:103EF000661F771F8A95D2F740955095609570950B
:103F00008091C8029091C902A091CA02B091CB02DF
:103F10008A019B01082319232A233B23C901B801E5
:103F20001F910F910C94281F0F931F9341E050E0B5
:103F300060E070E004C0440F551F661F771F8A952C
:103F4000D2F78091C8029091C902A091CA02B091A3
:103F5000CB028A019B01082719272A273B27C90181
:103F6000B8011F910F910C94281F0F931F9300917C
:103F7000C8021091C9022091CA023091CB02602B75
:103F8000712B822B932B1F910F910C94281F0F9351
:103F90001F930091C8021091C9022091CA0230916A
:103FA000CB0260237123822393231F910F910C94E2
:103FB000281F0F931F930091C8021091C9022091EE
:103FC000CA023091CB0260277127822793271F9165
:103FD0000F910C94281F0895292F220F920F990FEB
:103FE000890FA82FA695A695A695877051E001C0C8
:103FF000550F8A95EAF785E0A89FD001112420E0AB
:1040000030E070E0F901EA0FFB1FEF56FD4F4081F1
:10401000CB01022E02C0969587950A94E2F7817033
:104020009927819584278523842780832F5F3F4F9D
:104030002530310539F70895292F220F920F990F56
:10404000890F682F669566956695982F977085E01D
:10405000689FB001112440E050E080E0FA01E60FD3
:10406000F71FEF56FD4F208130E0092E02C0369534
:1040700027950A94E2F721703327042E01C0220FFE
:104080000A94EAF7822B4F5F5F4F4530510531F7B5
:104090000895BF92CF92DF92EF92FF920F931F93FA
:1040A000CF93DF938C01C090CC02D090CD02E090F2
:1040B000CE02F090CF028091C8029091C902A091E7
:1040C000CA02B091CB02C82AD92AEA2AFB2ACFE138
:1040D000D0E0D701C6010C2E04C0B695A7959795E0
:1040E00087950A94D2F780FF07C0BC2EB8018C2FA9
:1040F0000E945708019719F4219758F7B12C8B2D7E
:10410000DF91CF911F910F91FF90EF90DF90CF90B3
:10411000BF900895CF93DF93EC010E944920BE0128
:104120000E945708DF91CF9108951F93CF93DF939B
:10413000EB0190915602992321F0CB010E948A2035
:1041400013C0882349F0CB010E944920182F682F03
:10415000CE010E94EC1F04C0CB010E941C20182F2E
:10416000BE01812F0E945708DF91CF911F910895C2
:104170008091D00285958595859508958091D0028E
:10418000877008959091D002977081E009F480E0E3
:1041900008958091F40208959091F402892B809300
:1041A000F402089580959091F40289238093F4029B
:1041B00008958093F40208951092F4020895909166
:1041C000F302892B8093F302089580959091F30276
:1041D00089238093F30208951092F3020895909139
:1041E000F202892B8093F202089580959091F20259
:1041F00089238093F20208951092F202089580912B
:10420000D102089508950C9402219091D10298173B
:1042100021F08093D1020C94032108958091D10262
:10422000882329F01092D10280E00C940321089594
:10423000E0911701F09118018091F4028083E091E0
:104240001701F091180190818091F302892B8083EE
:10425000E0911701F091180190818091F202892B71
:1042600080838091D102882381F0E0911701F09141
:1042700018019081892B80838091170190911801FA
:104280000E94202281110E940E218091170190919D
:1042900018010C94A81408950C944B2198E0899F60
:1042A00090011124262B2093D0020E944E1F809152
:1042B000D0028595859585950C944C211092D0025D
:1042C00080E00C944C212091D00280958223809331
:1042D000D002982F977079F430E0482F082E000C08
:1042E000550B2417350739F08595859585950E94DE
:1042F0006F1F0C945E21089580E090E00E94C03012
:1043000021E08C3E9E4F09F020E0822F089582E04C
:1043100090E00C94B23083E090E00C94B230CF93F4
:1043200084E090E00E94B230C82F81E290E00E94C9
:10433000B2302C2F30E0A901582BCA01CF9108953B
:10434000CF93C92F682F84E090E00E94C6306C2F75
:1043500081E290E0CF910C94C6308FE090E00C9415
:10436000BA30AB01BC018FE090E00C94D830AB01C7
:10437000BC0183E190E00C94D83060E070E0CB01A8
:104380000C94B7216CEE7EEF80E090E00E94E43068
:1043900060E082E090E00E94C63060E083E090E060
:1043A0000E94C6301092CC021092CD021092CE0222
:1043B0001092CF0260E084E090E00E94C63060E09E
:1043C00081E290E00E94C63060E085E090E00E94CB
:1043D000C63060E086E090E00E94C6306FEF87E074
:1043E00090E00E94C63040E050E0BA0188E090E0E2
:1043F0000E94D83060E08DE090E00E94C63040E03E
:1044000050E0BA0188E190E00E94D83060E087E196
:1044100090E00E94C63040E050E0BA018CE190E0AC
:104420000E94D83060E080E290E00E94C6300C9498
:104430004A060C94C221682F8EE090E00C94C6309E
:10444000FC01329680912801882331F08091790314
:1044500087FF02C09EE101C096E080E0915028F005
:1044600021912223D9F38F5FF9CF08959C01FC019C
:1044700032969FEF80E04191461789F09F3F19F4F3
:10448000411101C0982F8F5F8630A9F79F3F39F007
:10449000F901E90FF11D97FDFA95628308950895DA
:1044A000FC01329608962081261301C010823196B5
:1044B000E817F907C1F70895262F26952695269522
:1044C0002E3168F4FC01E20FF11D677021E030E04D
:1044D00001C0220F6A95EAF78281282B2283089572
:1044E000262F2695269526952E3170F4FC01E20F95
:1044F000F11D677021E030E001C0220F6A95EAF7F4
:104500002095828128232283089520912801222347
:1045100029F02091790327FD0C945C220C9436221B
:1045200020912801222329F02091790327FD0C9462
:1045300070220C94502220912801FC0132962223F3
:1045400031F08091790387FF02C08EE101C086E0DF
:10455000DF011D928A95E9F7089508950C94AD2224
:104560000E94AE2280917F03843009F439C01092FA
:10457000F60220E488E190E00FB6F894A8958093C5
:1045800060000FBE2093600080E00E9424070E941C
:1045900079118091F70281110AC081E08093F702BE
:1045A0008091320381708093F8020E94050F0E946F
:1045B000AE2283B7817F846083BF83B7816083BF6E
:1045C0007894889583B78E7F83BF0FB6F894A895AB
:1045D00080916000886180936000109260000FBE3F
:1045E00008950895CF930E9445040E9458040E94A4
:1045F000F122C0E08C2F0E94BF04811104C0CF5F64
:10460000CE30C1F701C081E0CF91089508950C9498
:1046100006230E94121B0E949C140E9424071092E1
:10462000F7028091F80281110E9471110E94BE1060
:104630000C9407231F920F920FB60F9211248F93A1
:104640009F93AF93BF938091F602811113C0809125
:10465000750390917603A0917703B091780341960A
:10466000A11DB11D8093750390937603A0937703EA
:10467000B0937803BF91AF919F918F910F900FBE30
:104680000F901F90189582E084BD93E095BD9AEF3E
:1046900097BD80936E0008952FB7F89480917503AD
:1046A00090917603A0917703B09178032FBF08957E
:1046B000CF92DF92EF92FF920F931F932FB7F89450
:1046C0004091750350917603609177037091780360
:1046D0002FBF6A017B01EE24FF248C0120E030E033
:1046E000C016D106E206F30610F4415051099A01B2
:1046F000281B390BC9011F910F91FF90EF90DF909C
:10470000CF90089578941F920F920FB60F921124B4
:104710008F939F93AF93BF9380917503909176038E
:10472000A0917703B09178030196A11DB11D8093EC
:10473000750390937603A0937703B0937803BF91AA
:10474000AF919F918F910F900FBE0F901F90189572
:10475000F89481E08093E00080E28093D800E9EC57
:10476000F0E010828FE19EE40197F1F700C00000B5
:104770001DBA109268001CBC10BE1FBA10927A00BD
:1047800010926E0010926F001092710010927200E1
:104790001082ECEBF0E0108214B817B81AB81DB80C
:1047A00010BA108215B818B81BB81EB811BA0C94FC
:1047B000003F08950E947C21811102C00E941922AD
:1047C0000E9487218093F5020E948F2190937A03A3
:1047D000809379030E948B21682F70E080E090E045
:1047E0000C94ED1E8091FD0280FF0BC060911C01B6
:1047F00085E0689FB001112475956795759567955B
:104800002BC081FF09C060911C0185E0689FB00149
:1048100011247595679520C082FF07C060911C0127
:1048200085E0689FB001112417C09091FC02992384
:10483000D1F060911B01961788F720911C0185E04B
:10484000289F90011124929FA001939F500D112445
:1048500070E0CA010E94522F6038710540F4611562
:10486000710539F002C065E070E0862F08958FE78A
:10487000089581E008958091FD0280FF08C0609155
:104880001A0170E0759567957595679521C081FF50
:1048900006C060911A0170E07595679519C082FF96
:1048A00004C060911A0170E010C09091FC0299233D
:1048B000C1F0609119019617A0F780911A01899FA4
:1048C000C001112470E00E94522F6038710528F455
:1048D0006115710521F0862F08958FE7089581E015
:1048E000089561E070E0F4CF803F21F40E94F2234C
:1048F000819504C0813F29F40E94F2238093010333
:104900000895823F21F40E94F223819504C0833FE1
:1049100029F40E94F223809300030895893F19F43B
:104920000E943B2405C08A3F31F40E943B248195BC
:104930008093020308958B3F21F40E943B248195CC
:1049400004C08C3F29F40E943B2480930303089504
:10495000843F21F48091FF02816017C0853F21F4DC
:104960008091FF02826011C0863F21F48091FF0296
:1049700084600BC0873F21F48091FF02886005C0EE
:10498000883F31F48091FF0280618093FF02089597
:104990008D3F21F48091FD0281600BC08E3F21F498
:1049A0008091FD02826005C08F3F29F48091FD0255
:1049B00084608093FD020895803F39F48091010363
:1049C00087FF6CC01092010369C0813F29F4809178
:1049D00001031816BCF362C090910003823F29F4D2
:1049E00097FF5CC01092000359C0833F19F4191659
:1049F000CCF354C0893F41F48091020318160CF0A7
:104A00004DC0109202034AC08A3F29F480910203EC
:104A100087FF44C0F6CF8B3F39F48091030387FFB3
:104A20003DC0109203033AC08C3F29F480910303E8
:104A30001816BCF333C0843F21F48091FF028E7FAF
:104A400017C0853F21F48091FF028D7F11C0863F02
:104A500021F48091FF028B7F0BC0873F21F480916E
:104A6000FF02877F05C0883F31F48091FF028F7E6F
:104A70008093FF0213C08D3F21F48091FD028E7F51
:104A80000BC08E3F21F48091FD028D7F05C08F3FCA
:104A900029F48091FD028B7F8093FD0280910003B9
:104AA00081110EC08091010381110AC0809102031F
:104AB000811106C080910303811102C01092FC0293
:104AC00008958EEF92E00E94C2140E944C239093AE
:104AD000FB028093FA0208951F93CF93DF93809196
:104AE000FA029091FB020E945823AC019091FC02C3
:104AF000992321F020911D0130E006C02091F90298
:104B00008AE0289F900111244217530708F47BC0C4
:104B100080910003C0910103D0910203109103031F
:104B2000811107C0C1116BC0D11169C0111167C0DB
:104B30006AC09F3F19F09F5F9093FC02181624F4FF
:104B40000E94F223809300038091000387FF05C039
:104B50000E94F2238195809300031C1624F40E9486
:104B6000F223809301038091010387FF05C00E9417
:104B7000F223819580930103309100033323E1F008
:104B8000209101032223C1F045EB3403C00111241D
:104B9000892F990F990B009709F481E08093000306
:104BA00035EB2303C0011124892F990F990B00972E
:104BB00009F481E0809301031D1624F40E943B2434
:104BC000809302038091020387FF05C00E943B246B
:104BD000819580930203111624F40E943B24809354
:104BE00003038091030387FF05C00E943B24819546
:104BF00080930303DF91CF911F910C9461259F3F18
:104C000009F099CFA1CFDF91CF911F910895EEEFD9
:104C1000F2E086E0DF011D928A95E9F71092FC022E
:104C20001092FD020895833081F128F4813059F00B
:104C30008230D1F00895853009F449C0B8F186304A
:104C400009F456C008958091F902262F30E0280F0C
:104C5000311D2F3F310524F4680F6093F902089548
:104C60008FEF8093F902089580911D01262F30E087
:104C7000280F311D2F3F310524F4680F60931D016B
:104C800008958FEF80931D01089580911C01262FB8
:104C900030E0280F311D2F3F310524F4680F609359
:104CA0001C0108958FEF80931C01089580911B01D2
:104CB000262F30E0280F311D2F3F310524F4680FD7
:104CC00060931B0108958FEF80931B0108958091DD
:104CD0001A01262F30E0280F311D2F3F310524F413
:104CE000680F60931A0108958FEF80931A01089559
:104CF00080911901262F30E0280F311D2F3F3105FB
:104D000024F4680F6093190108958FEF80931901BF
:104D10000895833011F128F4813049F0823091F008
:104D20000895853081F120F18630C1F10895809198
:104D3000F902681720F4861B8093F90208951092F7
:104D4000F902089580911D01681720F4861B809355
:104D50001D01089510921D01089580911C0168178E
:104D600020F4861B80931C01089510921C01089565
:104D700080911B01681720F4861B80931B01089506
:104D800010921B01089580911A01681720F4861B68
:104D900080931A01089510921A01089580911901C3
:104DA000681720F4861B8093190108951092190149
:104DB00008950F931F93482F50E0FA013597EF3372
:104DC000F10508F07FC0E157FF4F0C94662F0E9459
:104DD000192271C08091F502817F8E7F8093F50248
:104DE00081E0809305036FC00E94121B0FEF13ED4B
:104DF00020E3015010402040E1F700C000000E9475
:104E0000A82359C08091F502982F9095917090FB3E
:104E100080F98093F50291114EC0897F877F10C081
:104E20008091F50281FB222720F991E0922790FBE7
:104E300081F98093F5029923F1F18091F502816067
:104E40008093F50238C08091F50282FB222720F979
:104E500091E0922790FB82F9ECCF8091F50283FBE1
:104E6000222720F991E0922790FB83F9E2CF0E945C
:104E7000121B8091790387FB222720F991E092276A
:104E800090FB87F98093790316C0895301C08D5137
:104E900041E050E060E070E08A019B0104C0000F37
:104EA000111F221F331F8A95D2F7C901B8010E9432
:104EB000ED1E0E94121B81E006C061E070E080E000
:104EC00090E0F5CF80E01F910F91089580E0089564
:104ED00080E008958E518A3030F4E82FF0E0EA50F7
:104EE000FE4F8081089580E00895CF93C82F809170
:104EF0000503813071F018F08230E1F184C00E9426
:104F0000C920813151F00E94C920823209F07DC050
:104F100004C00E94C920813149F48C2F0E94662769
:104F2000811109C08C2F0E94D92622C00E94C9205D
:104F3000823221F4F2CF81E090E01AC08C2F0E94DF
:104F40006827811114C0C43179F048F4CB3079F06E
:104F5000C03109F05EC082E08093050308C0C93209
:104F600019F0C83321F055C01092050352C081E0FA
:104F7000817051C0C93279F108F5C43161F1A0F4F2
:104F8000C73009F044C01092F90284E180931D01FA
:104F9000C0931C018CE380931B0188E080931A016D
:104FA00088E28093190133C082EE8C0F863078F549
:104FB0008C2F0E946A278093040329C0CE34E9F025
:104FC00020F4CB3421F56AE013C0C13579F0C23545
:104FD000F1F461E00DC080910403882319F0109270
:104FE000040315C081E08093050315C061E006C08D
:104FF000809104030E9413260AC06AE08091040392
:105000000E94892604C01092050380E004C081E05C
:1050100002C080E0ADCFCF9108958091260308951E
:105020000F931F93CF93DF9300D01F92CDB7DEB7BE
:105030008C010E94772A823011F0843021F584E0BF
:1050400089831B830A8382E08093E9008FEF90912C
:10505000E800815095FD06C095ED9A95F1F70000A6
:105060008111F5CF8091E80085FF0DC040E050E050
:1050700063E070E0CE0101960E94942A8091E800DE
:105080008E778093E8000F900F900F90DF91CF9173
:105090001F910F910895CF93DF9300D01F92CDB74A
:1050A000DEB720917F03243031F523E02983805837
:1050B00091099B838A8382E08093E9008FEF90912E
:1050C000E800815095FD06C095ED9A95F1F7000036
:1050D0008111F5CF8091E80085FF0DC040E050E0E0
:1050E00063E070E0CE0101960E94942A8091E8006E
:1050F0008E778093E8000F900F900F90DF91CF9103
:105100000895CF93DF93EC010E94772A823011F04B
:105110008430F9F482E08093E9009FEF8091E80009
:10512000915085FD06C085ED8A95F1F7000091113B
:10513000F5CF8091E80085FF0CC040E050E066E0CC
:1051400070E0CE010E94942A8091E8008E778093CF
:10515000E800DF91CF910895CF93DF93EC010E9497
:10516000772A823011F08430D9F580912801882384
:1051700039F08091790387FF03C060E282E002C0CA
:1051800068E081E08093E9008FEF9091E800815022
:1051900095FD06C095ED9A95F1F700008111F5CFC8
:1051A0008091E80085FF1CC080912801811105C015
:1051B00040E050E068E070E003C070E040E050E0A4
:1051C000CE010E94942A8091E8008E778093E800B7
:1051D00080E2FE01A6E0B3E001900D928A95E1F72E
:1051E000DF91CF91089580917E03811109C00E94C3
:1051F000292C0E94862C8091E20084608093E2003A
:10520000089510927E030895089508950C9409233B
:1052100042E061EC81E00E94A32B42E261EC82E07B
:105220000C94A32B80918103833009F460C030F487
:10523000813071F0823009F499C008958A3009F400
:1052400085C08B3009F46BC0893009F0A7C020C03D
:1052500080918003813A09F0A1C08091E800877FA6
:105260008093E8008091840390918503892B21F439
:1052700060E286E093E003C060E080E090E070E0F0
:105280000E94DF2A8091E8008B778093E8000895E0
:1052900080918003813209F081C0809184039091D4
:1052A0008503029708F07AC08091E800877F809399
:1052B000E8008091E80082FD05C080917F038111A4
:1052C000F8CF6CC02091F3008091F20090E0922B17
:1052D000029729F48091F1008B7F813021F4809135
:1052E000F100809326038091E8008B7753C0809172
:1052F0008003813A09F052C0809184039091850324
:10530000892B09F04BC08091E800877F8093E800EB
:105310008091E80080FFFCCF8091280136C0809109
:1053200080038132D9F58091840390918503892B84
:10533000A9F58091E800877F8093E8000E94D82B30
:1053400080918203809328010C94121B809180032A
:10535000813221F58091E800877F8093E8000E94E8
:10536000D82B809183038093270308958091800335
:10537000813AA1F48091E800877F8093E8008091D2
:10538000E80080FFFCCF809127038093F10080919B
:10539000E8008E778093E8000C94D82B089584B7AA
:1053A000877F84BF0FB6F894A895809160008861CC
:1053B00080936000109260000FBE80E880936100CF
:1053C000109261000E940A150E94292C0E94862CCE
:1053D0008091E20084608093E20078940E94152F0F
:1053E0000E9412158EE191E00E94971480917F0334
:1053F000853069F40E94B02280917D038823B1F347
:105400000E94F222882391F30E947E2AEFCF0E940D
:105410001C150E947C11EACF0C940E2A292F3327E9
:1054200023303105C9F064F42130310581F0223098
:10543000310509F04CC08BE390E021E535E04BC02D
:105440002132310521F12232310589F140C082E15A
:1054500090E02CE835E03FC099278130910571F04C
:105460002CF4892BA1F5EDE4F5E00DC08230910517
:1054700041F0039761F5E7E1F5E005C0E5E3F5E00C
:1054800002C0EDE1F5E0849190E09F0124C0611538
:10549000710541F061307105D1F489E090E02CE7AD
:1054A00035E019C089E090E023E635E014C06115CD
:1054B000710541F06130710551F480EC90E02EE906
:1054C00035E009C080E490E02EE536E004C080E0DD
:1054D00090E020E030E0FA0131832083089580914C
:1054E0007F03843011F081E0089582E00895809177
:1054F0002803811102C00C946F2A089580E189BDB0
:1055000082E189BD09B400FEFDCF8091D8008F7D76
:105510008093D8008091E00082608093E0008091C9
:10552000E00081FDFCCF0895CF92DF92EF92FF92D1
:105530000F931F93CF93DF93EC018B016A010E94BD
:10554000F72B811133C0C114D10439F0F6018081E9
:105550009181081B190BC80FD91FE12CF12C0115E3
:10556000110519F18091E80085FD16C08091E800D1
:105570008E778093E800C114D10449F0F601808150
:105580009181E80EF91EF182E08285E00FC00E9451
:10559000F72B882321F30AC089918093F1000150F1
:1055A0001109FFEFEF1AFF0ADACF80E0DF91CF9108
:1055B0001F910F91FF90EF90DF90CF900895209171
:1055C0008603309187032617370748F06115710568
:1055D00039F42091E8002E772093E80001C0B9014A
:1055E00040E061157105A9F120917F03222309F4A0
:1055F00043C0253009F442C02091E80023FD40C09B
:105600002091E80022FD32C02091E80020FFE9CF80
:105610004091F3002091F20030E0342BFC01CF01E7
:105620006115710559F02830310540F4819180935E
:10563000F100615071092F5F3F4FF1CF41E02830F9
:10564000310509F040E02091E8002E772093E80032
:10565000C8CF4111C9CF0AC080917F03882361F070
:10566000853061F08091E80083FD0AC08091E800F8
:1056700082FFF2CF80E0089582E0089583E00895EC
:1056800081E008952091860330918703261737071C
:1056900048F06115710539F42091E8002E772093C8
:1056A000E80001C0B901FC0120E06115710591F12C
:1056B00080917F03882309F440C0853009F43FC0FE
:1056C0008091E80083FD3DC08091E80082FD2FC0FD
:1056D0008091E80080FFE9CF2091F3008091F200F3
:1056E00090E0922B6115710559F08830910540F4D6
:1056F00024912093F1003196615071090196F2CF07
:1057000021E0089709F020E08091E8008E778093EF
:10571000E800CBCF2111CCCF0AC080917F03882332
:1057200061F0853061F08091E80083FD0AC08091CE
:10573000E80082FFF2CF80E0089582E0089583E0E0
:10574000089581E00895982F973058F59093E900D7
:10575000981739F07091EC002091ED005091F00015
:1057600003C0242F762F50E021FF19C03091EB00A9
:105770003E7F3093EB003091ED003D7F3093ED00A4
:105780003091EB0031603093EB007093EC0020938C
:10579000ED005093F0002091EE0027FF07C09F5FBF
:1057A000D3CF8F708093E90081E0089580E0089561
:1057B0008091800387FF11C08091E80082FD05C0C1
:1057C00080917F038111F8CF11C08091E8008B7721
:1057D0000BC080917F03882349F08091E80080FF0F
:1057E000F8CF8091E8008E778093E80008952091AB
:1057F000E4003091E50095E64091EC00842F817043
:1058000040FF22C08091E80080FD1CC080917F0392
:10581000882391F0853091F08091EB0085FD10C0D8
:105820004091E4005091E5004217530729F39A0193
:10583000915011F784E0089582E0089583E008957F
:1058400081E0089580E008954091E80042FFDECFB6
:1058500008950E94972C0E949F2CE0EEF0E080813A
:1058600081608083E8EDF0E080818F77808319BCD0
:10587000A7EDB0E08C918E7F8C9380818F7E8083AA
:1058800010927E0308950F931F93CF93DF930E948E
:10589000972C0E949F2CC8EDD0E088818F77888359
:1058A00088818068888388818F7D888319BC109265
:1058B0007F0310927B0310927D0310927C0300EE15
:1058C00010E0F80180818B7F8083888181608883EC
:1058D00042E060E080E00E94A32BE1EEF0E08081F6
:1058E0008E7F8083E2EEF0E0808181608083808122
:1058F00088608083F80180818E7F808388818061C9
:105900008883DF91CF911F910F910895E8EDF0E02A
:1059100080818F7E8083E7EDF0E0808181608083ED
:1059200084E082BF81E080937E030C94432CE8EDF9
:10593000F0E080818E7F80831092E20008951092C3
:10594000DA001092E10008951F920F920FB60F92A5
:1059500011242F933F934F935F936F937F938F9374
:105960009F93AF93BF93EF93FF938091E10082FFEA
:105970000BC08091E20082FF07C08091E1008B7F25
:105980008093E1000E94142F8091DA0080FF1FC0F5
:105990008091D80080FF1BC08091DA008E7F8093B9
:1059A000DA008091D90080FF0DC080E189BD82E1DD
:1059B00089BD09B400FEFDCF81E080937F030E9482
:1059C000F32805C019BC10927F030E940129809121
:1059D000E10080FF19C08091E20080FF15C0809136
:1059E000E2008E7F8093E2008091E20080618093EC
:1059F000E2008091D80080628093D80019BC85E0D5
:105A000080937F030E9405298091E10084FF30C0CC
:105A10008091E20084FF2CC080E189BD82E189BDD4
:105A200009B400FEFDCF8091D8008F7D8093D8000F
:105A30008091E1008F7E8093E1008091E2008F7E73
:105A40008093E2008091E20081608093E200809187
:105A50007B03882311F084E007C08091E30087FD79
:105A600002C081E001C083E080937F030E94062989
:105A70008091E10083FF29C08091E20083FF25C06F
:105A80008091E100877F8093E10082E080937F0333
:105A900010927B038091E1008E7F8093E1008091E2
:105AA000E2008E7F8093E2008091E200806180932B
:105AB000E20042E060E080E00E94A32B8091F000D1
:105AC00088608093F0000E940429FF91EF91BF91BC
:105AD000AF919F918F917F916F915F914F913F9186
