:100000000C94F7030C9414040C9414040C9414042E
:100010000C9414040C9414040C9414040C94140400
:100020000C9414040C9414040C94532D0C94252E4D
:100030000C94C9230C9414040C9414040C9414040C
:100040000C9414040C9414040C9414040C941404D0
:100050000C9414040C9431240C9414040C94140483
:100060000C9414040C9414040C9414040C941404B0
:100070000C9414040C9414040C9414040C941404A0
:100080000C9414040C9414040C9414040C94140490
:100090000C9414040C9414040C9414040C94140480
:1000A0000C9414040C9414040C9414046A046D0449
:1000B00070047304760479047C04220825082A0855
:1000C0002F08340839083E08430848084D085208EC
:1000D00057085908650873087E0889089408960827
:1000E000A108F218F218241924196A198A19E31AB6
:1000F000411BCC19691A7A1A7A1ADA1A411B411B68
:100100003B1BD11BD11BE31BE31BDA1BE31BE31BD4
:10011000E31BD11BD11BDF1BE31BE31BDF1BA3274F
:100120009927B1270A28112811280A2811281128EF
:10013000D2271128DC27E627112811281128112899
:100140000A28112811280A281128BF271128112848
:10015000F627F627F627F627F627F627F627F627B7
:10016000F6270C281128A3279627112811281128D3
:1001700011281128112811281128112811280C28BC
:10018000112811280A281128F427F427F427F42726
:10019000F427F427F427F427F4270C28922EB92EFD
:1001A000AB2FB92EAB2F052F282FAB2F7E2F8D2FE6
:1001B00029002B003962E1002F6100001E001400AD
:1001C00004001D00E3002A001F001A0016001B0097
:1001D00001512800200008000700060002512C00F1
:1001E000210015000900190003514C0022001700DE
:1001F0000A000500E2004A004C432F0000002E00D8
:1002000001514D003543300000002D002E414B00C0
:1002100023001C000B0011002D424E00240018008A
:100220000D00100050004C0025000C000E003600A0
:1002300051002C00260012000F0037005200280049
:1002400027001300330038004F002A002A00310035
:100250003400E50030710000A800000000002F020B
:100260002F0000003A000000000000000000000025
:100270003B00000000000000010000003C00000006
:1002800000000000000000003D0000000000000031
:10029000000000003E000000000000000000000020
:1002A000000000000000000001000000000000004D
:1002B00000000000010000003F00000000000000FE
:1002C00001000000400000002E022E00AC000000E3
:1002D000410000002D022D00AA00AE0042000000E7
:1002E00000003700A90000004300000000003800B3
:1002F000AB00000044004500000030023000000068
:100300000000000000002F022F0000003A00000053
:1003100000000000000000003B00000000000000A2
:10032000000000003C000000000000000100000090
:100330003D00000000000000000000003E00000042
:1003400000000000000000000000000000000000AD
:10035000000000000000000000000000010000009C
:100360003F0000000000000001000000400000000D
:100370002E022E0000000000410000002D02560059
:1003800000000000420000000000370200000000F2
:100390004300000000003802000000004400450057
:1003A000000030023000000062072B010000000056
:1003B000000000005907000000001D0100000000BF
:1003C0005A07000016011B01000000005B07000037
:1003D00007010601000000005C0700000901190187
:1003E000010000005D0700000000000000000000A8
:1003F00001000000000000000000000000000000FC
:1004000000000000000000000000000000000000EC
:1004100000000000000000000000000000000000DC
:1004200000000000000000000000000000000000CC
:1004300000000000000000000000000000000000BC
:1004400000000000000000000000000000000000AC
:1004500000047F3F1F643214643214783C1E1E1463
:100460000A052223252628292A2C2D2F3032333520
:1004700036383A3B3D3E4042434547494A4C4E5050
:1004800051535557595A5C5E6062646668696B6D7A
:100490006F71737577797B7D7F81838587898A8C7E
:1004A0008E90929496989A9C9E9FA1A3A5A7A8AA85
:1004B000ACAEAFB1B3B4B6B8B9BBBCBEBFC1C2C3BA
:1004C000C5C6C7C9CACBCCCDCED0D1D2D2D3D4D554
:1004D000D6D7D7D8D9D9DADADBDBDBDCDCDCDCDC7D
:1004E000DDDDDDDDDCDCDCDCDCDBDBDBDADAD9D955
:1004F000D8D7D7D6D5D4D3D2D2D1D0CECDCCCBCAE3
:10050000C9C7C6C5C3C2C1BFBEBCBBB9B8B6B4B308
:10051000B1AFAEACAAA8A7A5A3A19F9E9C9A98969E
:100520009492908E8C8A89878583817F7D7B797771
:100530007573716F6D6B6968666462605E5C5A5951
:1005400057555351504E4C4A4947454342403E3D12
:100550003B3A3836353332302F2D2C2A29282625A0
:100560002322FFAA7F554000010101010101010181
:100570000102020202020202020203030303030356
:100580000303040404040404040505050505060624
:1005900006060607070707070808080809090909E2
:1005A0000A0A0A0B0B0B0C0C0C0D0D0D0E0E0E0F88
:1005B0000F0F101011111112121313141415151618
:1005C000161717181819191A1A1B1B1C1D1D1E1E89
:1005D0001F202021222223242425262627282929DA
:1005E0002A2B2C2D2D2E2F30313232333435363705
:1005F00038393A3B3C3D3E3F404142434445464703
:1006000048494A4C4D4E4F50515354555658595ADB
:100610005B5D5E5F616264656668696B6C6D6F707F
:1006200072737577787A7B7D7E8082838587888AEE
:100630008C8E8F91939596989A9C9EA0A2A3A5A725
:10064000A9ABADAFB1B3B5B7BABCBEC0C2C4C6C921
:10065000CBCDCFD1D4D6D8DBDDDFE2E4E7E9EBEEDA
:10066000F0F3F5F8FAFDFF0403300000001603452F
:1006700000720067006F0044006F007800200045A2
:10068000005A00000016034500720067006F004426
:10069000006F007800200045005A000000040309A4
:1006A0000409023B00020100A0FA09040000010352
:1006B0000101000921110100012240000705810309
:1006C00008000A09040100010300000009211101CA
:1006D000000122C0000705820320000A1201100158
:1006E00000000008EDFE07130100010203010501EF
:1006F0000902A10185020901A100050919012905C5
:10070000150025019505750181029501750381018B
:100710000501093009311581257F9502750881068B
:1007200009381581257F950175088106050C0A3861
:10073000021581257F950175088106C0C005010954
:1007400080A10185031A81002A8300160100260377
:1007500000950175108100C0050C0901A1018504F7
:100760001A01002A9C02160100269C0295017510B0
:100770008100C005010906A1018505050719E029C9
:10078000E715002501950875018102050719002963
:10079000EF1500250195F075018102050819012961
:1007A00005950575019102950175039101C005013B
:1007B0000906A101050719E029E71500250195089B
:1007C000750181029501750881010507190029FF4E
:1007D000150026FF009506750881000508190129F6
:1007E00005950575019102950175039101C01124CC
:1007F0001FBECFEFDAE0DEBFCDBF12E0A0E0B1E078
:10080000E6E5F3E602C005900D92A030B107D9F7F6
:1008100023E0A0E0B2E001C01D92AC38B207E1F7DE
:100820000E947E2A0C94A9310C94000080B38C7035
:1008300080BB81B3836F81BB089584B1807F84B90D
:1008400085B1807F85B98AB1837F8AB98BB1837F77
:100850008BB93E9846980895CF93E82F873080F55E
:100860008091060190910701892B09F047C0CE2F96
:1008700064E670E080E40E949614909307018093F0
:100880000601892BD1F464E670E082E10E94ED1448
:100890009093070180930601892B79F481E090E021
:1008A00001C0880FCA95EAF764E670E080950E945F
:1008B000ED149093070180930601CF910C9442159B
:1008C00090E0FC013797E730F105C0F4EA5AFF4F9A
:1008D0000C941530209A289811C0219A29980EC09E
:1008E000229A2A980BC0239A2B9808C0529A5A9899
:1008F00005C0539A5B9802C03E9A4698CF910895DE
:10090000CF93873008F03FC0809106019091070196
:10091000892B09F041C064E670E080E40E949614DF
:100920009093070180930601892B11F0C0E027C046
:1009300064E670E083E10E94ED14909307018093D8
:100940000601892B99F764E670E081E40E94961411
:100950009093070180930601892B41F784E690E08C
:100960000E941D1597FF05C0909307018093060113
:10097000DDCFC82FC09510920701109206010E948A
:1009800042158C2F0AC09FB18FB1807F86958695C6
:100990009370892B809501C080E0CF9108950895D0
:1009A00008950C94D0040E947B0690E09093070178
:1009B000809306010E941D040E941604AFE0B2E07D
:1009C000E1E0F2E08EE08E0F11921D928E13FCCFCB
:1009D0008EE00E94BD0C0C94AB070E947B0690E059
:1009E00090930701809306010E941D040E94160443
:1009F000E1E0F2E08EE08E0F11928E13FDCF0895AC
:100A0000CF92DF92EF92FF920F931F93CF93DF93DA
:100A10008091060190910701892B91F0809100024D
:100A20008F5F8093000281110BC00E947B0690E0D3
:100A30009093070180930601892B11F40E94ED0524
:100A40009FE0E92E92E0F92E06E112E0C0E0D12C01
:100A500087E0C82ECC0E8C2F0E942C048C2D0E9477
:100A60002C048C2F0E948004F7019081981719F0B4
:100A70008083D1E001C0D0E08C2D0E948004F80179
:100A80009081981719F0808381E001C080E0D82B15
:100A9000DD2A0E941D04CF5FFFEFEF1AFF0A0F5FF0
:100AA0001F4FC730A9F62D2D4EE061E072E08FE0B8
:100AB00092E00E942F0D0E94B50781E0DF91CF9157
:100AC0001F910F91FF90EF90DF90CF900895E82F46
:100AD000F0E0EF5FFD4F8081089508952BB1342F32
:100AE000309523233BB1432B3FB7F894FC01680FAB
:100AF000791FE617F70789F0819198E04BB900005C
:100B000000C087FF2BB9880F000000C000C000C0E4
:100B10002BB900C09A9591F7ECCF3FBF08952AB149
:100B2000242B2AB9660F771F660F771F0E946E0568
:100B30008FE391E00197F1F700C00000089540E8CD
:100B40000C948F050F931F93CF93DF938091320303
:100B500080FF0AC00E94901464E670E084E80E945E
:100B60009614C0E0D0E00EC080E090E0FC01E95CAB
:100B7000FC4F118210821282138204968C339105ED
:100B8000A9F7E8CF8E01095C1C4F64E670E0F8011C
:100B900080810E94ED1464E670E0F80181810E947A
:100BA000ED1464E670E0F80182810E94ED1464E6C1
:100BB00070E0F80183810E94ED142496CC33D105B6
:100BC00009F70E9442156FE070E087E393E0DF9140
:100BD000CF911F910F910C949F0556985E98259880
:100BE0002D9826982E9827982F988FEF90E0909325
:100BF00089008093880090938B0080938A00909363
:100C00008D0080938C00259A2D9A2FEF80E792E03B
:100C1000215080409040E1F700C00000269A2E9AB3
:100C20002FEF80E792E0215080409040E1F700C034
:100C30000000279A2F9A2FEF80E792E02150804002
:100C40009040E1F700C0000025982D982FEF80E735
:100C500092E0215080409040E1F700C000002698CB
:100C60002E982FEF80E792E0215080409040E1F7EE
:100C700000C0000027982F9856985E9825982D98C8
:100C800026982E9827982F98089589EA80938000B7
:100C900089E08093810024982C983F988AB18F7CBA
:100CA0008AB96E98479A8BB180638BB9769A0E9405
:100CB0005C226093290370932A0380932B03909303
:100CC0002C0367708FEF689FB001112475956795AD
:100CD0007595679577277093890060938800709366
:100CE0008B0060938A0070938D0060938C000E944B
:100CF000ED050C94CF0480E290E09093070180937F
:100D0000060180911D0281110EC00E94901481E0A5
:100D100080931D022FEF83ED90E32150804090409F
:100D2000E1F700C0000064E670E080E40E949614E1
:100D30009093070180930601892B09F04EC064E669
:100D400070E080E00E94ED1490930701809306010B
:100D5000892B09F042C064E670E080E00E94ED1447
:100D60009093070180930601892BB9F564E670E042
:100D70008FE30E94ED149093070180930601892B65
:100D800061F50E94421564E670E080E40E949614CA
:100D90009093070180930601892BF9F464E670E0D3
:100DA0008CE00E94ED149093070180930601892B3B
:100DB000A1F464E670E080E00E94ED1490930701D6
:100DC00080930601892B49F464E670E08FE30E946A
:100DD000ED1490930701809306010E9442158091C3
:100DE000060108951092290310922A0310922B03F2
:100DF00010922C0384E08061809329036091290381
:100E000070912A0380912B0390912C030E94602201
:100E10000C946C229C013A9521153F4138F5DC0178
:100E2000AA27B270AC01442754709C012227387065
:100E300094FF0FC090FF02C080E101C080E0AB2BA7
:100E400009F08062452B09F08064232B69F08068EB
:100E50000BC0892F8170AB2B09F08260452B09F004
:100E60008460232B09F08860FB0109940895CF93D7
:100E7000DF93EC01805E9109089710F0209719F438
:100E800062EB78E102C069E97BE1CE010E940A07CA
:100E90008C2FDF91CF910C94FE16CF93DF93EC0152
:100EA0000E943718CE01805E9109089710F02097B4
:100EB00019F469EB78E102C060EA7BE1CE01DF91D1
:100EC000CF910C940A07CF93DF93EC010E94370770
:100ED000CE01DF91CF910C944D0781E0089581E020
:100EE00008950C946F071F93CF93DF9300D000D029
:100EF0001F92CDB7DEB749835A832091560289816C
:100F00009A81211112C0662349F00E94F820182FFF
:100F1000682F89819A810E949B2003C00E94CB2068
:100F2000182F69817A81812F04C00E94F82069817D
:100F30007A810F900F900F900F900F90DF91CF91CB
:100F40001F910C94090AFC014081518162817381D7
:100F500084810C9473070E942B22811102C00E948D
:100F6000C8220E94890D0C9445060C94D104282FA8
:100F70002F7041F0822F90E02A3010F44D960895A2
:100F80000697089587E290E0089508950C94C507A8
:100F900081E008950C94C807CF93C82F0E94C6071C
:100FA0008C2F0E94CA07CF91089508950E94C11BFB
:100FB0000E94D5072FEF84E39CE0215080409040B1
:100FC000E1F700C000000C9457240F931F93CF93B8
:100FD000DF938C010E94A307EC01B8010E94710706
:100FE000882309F40CC2B801CE010E94FD0D8823AC
:100FF00009F405C2B801CE010E944F14882309F4F8
:10100000FEC1F8018281882309F4C8C1C1158CE5AD
:10101000D80739F0CE3DECE5DE0731F40E94C82256
:10102000EEC10E94D607EBC10E9478218272FE01B8
:10103000E25CFC45E431F10508F085C0E35AFF4F5E
:101040000C9415300E940013DAC1882329F00E9405
:10105000F212D5C18823D9F30E94E512D0C18823AA
:1010600029F00E940612CBC18823D9F30E94F911FE
:10107000C6C1882329F00E942412C1C18823D9F354
:101080000E941512BCC1882329F00E944212B7C1E8
:101090008823D9F30E943312B2C1882329F00E9419
:1010A000F410ADC18823D9F30E94E310A8C181E0F8
:1010B00009C00E94B110823020F00E94B11085302A
:1010C00058F282E00E94F5129AC10E94B110863057
:1010D00038F00E94B110883018F40E94E51203C065
:1010E00086E00E94F5120E94B110893028F00E941B
:1010F000B1108E3008F4B0CF89E0E4CF0E94B11077
:101100008F3028F00E94B110843108F4A5CF8FE011
:10111000D9CF0E94B110853128F00E94B1108731DB
:1011200008F49ACF85E1CECF88E1CCCF0E94B110F0
:10113000893128F00E94B110823208F48DCF89E104
:10114000C1CF83E2BFCFC631FCE5DF0709F429C177
:1011500030F4C230ECE5DE0708F44AC106C0CE0127
:101160008A5F9C45099708F043C1F8018281882372
:1011700009F43EC10E942B22811102C00E94C822A4
:101180000E943E2290937A0380937903C031FCE55C
:10119000DF0709F4C3C008F041C0C830ECE5DE0742
:1011A00009F49AC0F0F4C4308CE5D80709F487C07C
:1011B00068F4C230FCE5DF0709F477C0C330DC45D2
:1011C00009F0E3C080917903826076C0C630ECE517
:1011D000DE0709F46EC008F07BC080917903886057
:1011E0006BC0CC308CE5D80709F485C068F4CA30F0
:1011F000FCE5DF0709F474C008F079C00E94C11B48
:1012000080917903806858C0CE30ECE5DE0709F4A0
:1012100076C008F07FC0809179038BC0CB3F8CE50E
:10122000D80709F44FC018F5C331FCE5DF0709F40E
:101230007DC078F4C131ECE5DE0709F473C0C2313A
:10124000DC4509F0A2C00E94C11B809179038F7711
:1012500033C0C5318CE5D80709F472C008F486C0E4
:10126000CA3FDC4509F091C080917A033EC0CF3F70
:101270008CE5D80709F45FC058F4CD3FFCE5DF07E3
:1012800009F444C008F43FC080917A0382602DC005
:10129000C130EDE5DE0709F475C008F45DC0C23069
:1012A000DD4509F072C080E06EC0809179038160F5
:1012B00003C08091790380618093790366C0809137
:1012C000790311C080917A03826080937A035DC0B4
:1012D000809179038062F0CF809179038064ECCFB4
:1012E0008091790388608460E7CF8160EECF809140
:1012F00079038E7FE1CF809179038D7FDDCF80915F
:101300007903877FD9CF80917A0318C080917A03BF
:101310008D7FDBCF809179038F7ECECF8091790353
:101320008F7DCACF809179038F7BC6CF809179035F
:10133000877F8B7FC1CF80917A038D7F8E7FC5CFD2
:101340008091790382FB222720F991E0922790FB7C
:1013500082F990FB83F9B0CF80917A03982F909512
:1013600091708E7F892B90FB81F9AFCF0E94C11BBA
:101370008091790387FB222720F991E0922790FB47
:1013800087F99ACF81E00E94CA22809179039091D7
:101390007A030E944F220E94C11B31C0C631DC4536
:1013A00039F50E947821282FF80182814091170198
:1013B00050911801882379F02A7A91E009F490E09D
:1013C00090931E02911102C069E201C065E3CA0157
:1013D0000E9434230AC080911E02811102C069E27A
:1013E00001C065E3CA010E943F230E94C72107C0D4
:1013F000C801DF91CF911F910F910C946D0780E090
:10140000DF91CF911F910F91089580E090E00895B2
:10141000089596E0799FF001112494E5899FE00DED
:10142000F11D1124E60FF11DEE0FFF1FE055FE4FD9
:10143000859194910895880F991FFC01E05BFB4F03
:10144000859194910895CF93DF930E94090A0E9499
:10145000E60BEC01811520E59207F0F5811530E4EB
:10146000930708F029C1883E910500F5803E91055B
:1014700008F0A8C1883A910570F4853A910508F002
:10148000A4C08130910509F49DC108F44EC10497B0
:1014900008F098C14AC18F3B910508F4A1C0803C77
:1014A000910508F442C1805C9109F9C0811540E2C0
:1014B000940758F4C11581E0D80708F083C1C03FF4
:1014C000D10508F432C1D0657DC1811520E39207B2
:1014D00008F0E9C09F70E3C0811535E5930708F077
:1014E00044C0811544E5940708F0FDC0C11582E5AC
:1014F000D80708F5C11521E5D20708F0E0C08C2F08
:10150000837021E030E002C0220F331F8A95E2F79A
:101510003C68CE0174E0969587957A95E1F78370E3
:10152000382BCF70C695C69540E2C49FE0011124C8
:10153000C22BD32B47C12C2F26952695CE01837025
:101540009927C115D34508F0BFC040E2249F900100
:101550001124C1E0D0E002C0CC0FDD1F8A95E2F774
:101560002C2B3D2BE901DC682DC181154AE5940740
:10157000A0F4C11589E5D80708F0C4C0C11526E557
:10158000D20708F4B5C0C11538E5D30708F4CDC0BB
:10159000DC2FCC27C06FD06A15C181159B4508F49C
:1015A000C4C0C1158CE5D80708F4BCC0CE01905664
:1015B0008115904208F0B9C08D2F8F710E947A0C6E
:1015C000DD27D0628F71D82BFDC0853A910509F4D3
:1015D000AFC0863A910509F0AEC0C2E8D0E4F2C0CF
:1015E000883A910509F4AAC0893A910509F4A9C07D
:1015F0008A3A910509F4A8C08B3A910509F4A7C06D
:101600008C3A910509F4A6C08B3B910509F4A5C05D
:101610008C3B910509F4A4C08D3A910509F4A3C04F
:10162000803B910509F4A2C08E3A910509F4A1C04E
:101630008F3A910509F4A0C0813B910509F49FC040
:10164000823B910509F49EC0833B910509F49DC03E
:10165000843B910509F49CC0853B910509F49BC02E
:10166000863B910509F49AC0873B910509F499C01E
:10167000883B910509F498C0893B910509F497C00E
:101680008D3B910509F496C08E3B910509F495C0F8
:101690008A3B910509F494C0C0E0D4E493C00E9451
:1016A0001B0AEC018FC09927D3FF03C0EC01D86C53
:1016B00089C0EC01D06C86C0DF70D06A83C0DC2F9B
:1016C000CC27C16FD06A7EC040E2249F90011124D4
:1016D000C1E0D0E002C0CC0FDD1F8A95E2F7C22B3B
:1016E000D32BDA686FC0D82FCC27C46FD06A6AC0FA
:1016F0008C2F0E947A0C8F71C82FD0E0DC2FCC2762
:10170000D06260C08C2F8F700E947A0C94E0D695C6
:10171000C7959A95E1F7CF70D0E0DC2FCC27D06940
:10172000C82B50C0DD27D0664DC0C0E0D0E04AC015
:10173000C1E8D0E447C0C3E8D0E444C0C2EED4E47A
:1017400041C0C9EED4E43EC0CAEED4E43BC0C5EB10
:10175000D4E438C0C6EBD4E435C0C3EBD4E432C023
:10176000C4EBD4E42FC0C7EBD4E42CC0CCECD4E45D
:1017700029C0CDECD4E426C0C3E8D5E423C0CAE830
:10178000D5E420C0C2E9D5E41DC0C4E9D5E41AC03F
:10179000C1E2D6E417C0C3E2D6E414C0C4E2D6E482
:1017A00011C0C5E2D6E40EC0C6E2D6E40BC0C7E263
:1017B000D6E408C0CFE6D4E405C0C0E7D4E402C054
:1017C000CAE2D6E4CE01DF91CF9108958238910527
:1017D00069F1B0F48133910509F46DC048F48932A0
:1017E000910509F463C08A32910509F469C008952E
:1017F0008533910509F455C089339105B9F00895F1
:10180000833E910569F138F4803E9105B1F0823E46
:10181000910509F10895863E9105A9F1873E91054C
:10182000B9F1843E910509F064C023C02091790389
:1018300020FD4FC021FD4DC008958091790380FDAA
:1018400044C080917A0380FF44C08091790384FD75
:1018500042C083EE4DC08091790382FF38C0F5CF3E
:101860008091790382FD33C080917A0380FD31C07D
:10187000ECCF80917A0381FF32C08091790384FD9F
:101880002AC087EE35C08091790383FF26C0F5CF4B
:101890008091790383FD21C080917A0381FD1FC06F
:1018A000ECCF8091790385FD1CC01DC08091790328
:1018B00085FD19C016C08091790386FD16C017C03A
:1018C0008091790386FD13C010C089E311C082EEB8
:1018D0000FC080EE0DC080E00BC086EE09C084EE24
:1018E00007C089E205C085E303C08AE201C081E345
:1018F00090E008959091790392FF0DC0282F2871F0
:10190000283019F4877F846006C0282F2471243082
:1019100011F48B7F886093FF0DC0282F2871283128
:1019200019F4877E846106C0282F2471243111F4B4
:101930008B7E886120917A0320FF0DC0382F38718B
:10194000383019F4877F816006C0382F317131300B
:1019500011F48E7F886021FF0DC0282F2871283157
:1019600019F4877E816106C0282F2171213111F47D
:101970008E7E886194FD877E0895CF93C82F90E076
:101980000E9427308093200290932102282FFC018F
:101990009BEF8E2F821B8C1710F49193FACFCF916F
:1019A00008950F931F93CF93DF9310921F025091CE
:1019B0002002E52FF091210240E0A62FB0E07BEF5E
:1019C000CAEFD0E09E2F951B9817D0F490819B3FD3
:1019D000A9F0292F30E0691728F08D01021B130BA5
:1019E000980106C08E01021B130B98012A0F3B1FA2
:1019F0002E31310514F0708301C041E03196E2CF01
:101A000040931F02DF91CF911F910F910895CF93C3
:101A1000DF93109222025091200230911F02DB01CD
:101A2000EC01E52FF091210290E08E2F851B8417A9
:101A300078F489916C91681741F060816B3F21F4D3
:101A400020838C9331E001C091E031961196EDCF67
:101A500030931F0290932202DF91CF910895DF927D
:101A6000EF92FF920F931F93CF93DF9300D0CDB7E8
:101A7000DEB78C017B01D22E4A830E94FB236AEFE2
:101A800070E00E94ED2F282F80911F024A81882349
:101A900041F1622F842F29830E94D10C29814A8130
:101AA000DD2069F0B701C8010F900F90DF91CF9151
:101AB0001F910F91FF90EF90DF900C94070D809194
:101AC0001F02882379F3809122028111EBCF0F90BE
:101AD0000F90DF91CF911F910F91FF90EF90DF90CA
:101AE0000895DD2081F3DECFCF93DF9397FF0DC004
:101AF000FB012281222349F0EC010E949F0DCE01BF
:101B00009F770E94E00D0E94C90D81E0DF91CF9187
:101B100008958CE090E00E94613190E0A0E0B0E098
:101B200080932D0390932E03A0932F03B093300343
:101B3000089560912D038CE090E00C9475310E9423
:101B40007821809331030E948B2180912D03813075
:101B500071F048F0823081F08430A1F486EE0E946A
:101B60009F1888E10DC082EE0E94FE160BC088E12E
:101B700093E00E94630706C082EE0E94FE1687E58E
:101B80000E949F188FE39CE90197F1F700C00000C5
:101B9000089580912D03813039F040F0823031F08A
:101BA000843051F488E206C08CE204C082EE0E94C8
:101BB000371802C00E949F18809131030C9488212D
:101BC0000F931F93CF93DF938C01CCE0D0E0C8013B
:101BD0000C2E02C0969587950A94E2F78F700E94AA
:101BE000B7070E949F182497CC3F8FEFD80779F74B
:101BF000DF91CF911F910F9108950F931F93CF9372
:101C0000DF93EC018B01FB018281882319F1C33E34
:101C1000FCE5DF07C1F050F4C13EECE5DE0781F0E2
:101C2000C23EFCE5DF07B1F481E010C0C43E8CE5A4
:101C3000D80759F0C53EECE5DE0761F484E006C044
:101C400010922D0305C082E001C083E080932D0334
:101C50000E94990DB801CE01DF91CF911F910F9194
:101C60000C94740DAF92BF92CF92DF92FF920F93BC
:101C70001F93CF93DF93D62E372FE82FF0E071110B
:101C800006C0E959FA4F6491762F862F75C0C72F89
:101C9000D0E0E959FA4F2491F22E022F10E046E0ED
:101CA000649FC0011124EFEFF0E0BF010E94ED2F0F
:101CB000AB016BEA6403C001659F900D11248D0D8B
:101CC000911D8D0D911D982F990F890FDF01AC1B70
:101CD000BD0B0A9FB0010B9F700D1A9F700D112450
:101CE000972F839FD0011124AB2FBB276F01CA1AF6
:101CF000DB0A0C9DD0010D9DB00D1C9DB00D112473
:101D00005F01A81AB108AC9E6001AD9ED00CBC9ECC
:101D1000D00C1124CD2DDD27EC1BFD0B0E9FE00117
:101D20000F9FD00D1E9FD00D1124ED2F4230510575
:101D300091F04CF441155105E1F041305105B9F4F1
:101D4000E22F2B2F16C04430510569F044F0463085
:101D5000510579F00CC0E22F272F9D2F0AC0272FA5
:101D60009F2DEB2F06C0E72F922F2D2F02C0E72FBC
:101D70009B2F6E2F722F892FDF91CF911F910F9183
:101D8000FF90DF90CF90BF90AF9008950895CF93CC
:101D9000DF93762FE901682F842F0E94320E79831A
:101DA00068838A831B82DF91CF9108950F931F93DD
:101DB000CF93DF93EC0100E010E080910A01282F1F
:101DC00030E0021713071CF5909126029801290FA5
:101DD000311D220F331F220F331F295C3C4F869584
:101DE00090E04C81081719071CF4442331F002C01D
:101DF000411103C04091350301C040E060913403BC
:101E0000809133030E94C70E0F5F1F4FD6CF0E94F1
:101E1000A2052C8130E02F5F3F4F217033272C83A8
:101E2000DF91CF911F910F9108950F931F93CF933F
:101E3000DF938C01FC018481958101968170992743
:101E400095838483C0E0D5E580910A01C817F0F43A
:101E50002091260230E02C0F311D220F331F220F5C
:101E6000331F295C3C4F4C2F4695F80184819581A6
:101E7000840F911D817040913503609134038D9FD3
:101E8000802D11240E94C70ECF5FDECFDF91CF914E
:101E90001F910F910C94A2050F931F93CF938091E4
:101EA000260290910B01891760F424E0829FF001D3
:101EB0001124E95CFC4F11821082128213828F5F21
:101EC000F2CFC0E060910A01C61790F50C2F10E028
:101ED00070E0C8010E940130E0912602E80F809175
:101EE0002402082E000C990BF0E0EE0FFF1FEE0FFE
:101EF000FF1F08171907A4F020910901022E000CFA
:101F0000330B2017310764F09F01295C3C4F40914F
:101F1000350360913403809133030E94C70E06C0DD
:101F2000E95CFC4F1182108212821382CF5FCACF0C
:101F30000E94A2052091080180912402820F8093C3
:101F4000240290910901920F9093090119165CF4F3
:101F5000082E000C990B40910A0150E041505109A4
:101F6000841795071CF0219520930801CF911F91AC
:101F70000F910895AF92BF92CF92DF92EF92FF92AE
:101F80000F931F93CF93DF93FC01828180FF02C0E8
:101F90000FEF01C001E010E03FE0A32E80910A01A5
:101FA000181708F043C0C12ED12C80912602E601FB
:101FB000C80FD11DCC0FDD1FCC0FDD1FC95CDC4F5E
:101FC000198218821A821B8224E0E22EF12CB12C95
:101FD000809125028B0D80312CF06A2D0E94DF2F1D
:101FE000892F05C087FF03C090910A01890F082E31
:101FF000000C990BC816D90691F4809135038E9D7B
:10200000A0018F9D500D11245595479555954795E5
:102010009E0160913403809133030E94C70EB00E7D
:10202000F1E0EF1AF108A1F61F5FB8CF0E94A205F8
:1020300080912502013031F4811102C080910A01A2
:10204000815007C090E0019660910A0170E00E9403
:10205000013080932502DF91CF911F910F91FF9066
:10206000EF90DF90CF90BF90AF900895FF920F93C5
:102070001F93CF93DF93EC01F12C0FEF10E06091F1
:102080000A01F616E0F42091260230E02F0D311DF2
:10209000220F331F220F331F295C3C4F70E0C80111
:1020A0000E940130962F8C8140913503609134035A
:1020B000F99E800D11240E94C70EF394E0CF0E9478
:1020C000A2059A818C8190FF02C08F5F01C0815070
:1020D0008C83DF91CF911F910F91FF900895809194
:1020E0003203282F269530E02115310519F481702F
:1020F000826005C02532310524F0817088648093A8
:102100003203089588E090E00C946931CF93DF9317
:1021100000D000D0CDB7DEB7AB01BC0149835A83F4
:102120006B837C830E946F1049815A816B817C8113
:1021300088E090E00F900F900F900F90DF91CF917B
:102140000C948731E2E3F3E083E0808311828FEF28
:1021500082838383148260817181828193810C9454
:1021600086108091320380FF02C08695089580E03A
:102170000895E2E3F3E080818E7F80836081718146
:10218000828193810E94861010922F022FEF80E7A8
:1021900092E0215080409040E1F700C000000C9494
:1021A000A205E2E3F3E080818E7F808310922F020C
:1021B0002FEF80E792E0215080409040E1F700C08F
:1021C00000000C94A20580913603833018F48F5FD1
:1021D000809336036091320370913303809134030E
:1021E000909135030C94861080913603882319F062
:1021F0008150809336036091320370913303809154
:102200003403909135030C9486109091320390FF23
:1022100014C09091260220910B01921760F434E0D3
:10222000939FF0011124E95CFC4F8183608342831A
:1022300013829F5FF2CF0C94A2050895CF93DF9392
:1022400000D000D0CDB7DEB79091320390FF0AC026
:102250009E012F5F3F4F0E94C70E4B8169818A818B
:102260000E9405110F900F900F900F90DF91CF916A
:102270000895CF93DF93EC01EC81F0E0EE59FB4F32
:102280004491E2E3F3E0628181810E941E118C811E
:102290008F5F8C83DF91CF910895CF93DF93EC0113
:1022A000E2E3F3E0438162818C810E941E118C8104
:1022B0008F5F8C83DF91CF910895AF92BF92CF92C1
:1022C000DF92EF92FF920F931F93CF93DF9300D093
:1022D00000D0CDB7DEB7182FF62E042FE22E909146
:1022E000320390FF6DC0E92FE695AE2FB0E0AF52FC
:1022F000BE4F8C9180932E029E7F923061F49E019E
:102300002F5F3F4F812F0E94C70E4B8169818A81C9
:102310000E94051143C0823019F4009135033EC07C
:10232000863019F41091330339C08930D9F38931DB
:10233000A9F5E9518E2F8170D82EE695F0E0EE597F
:10234000FA4FA590B490C12CBB2460910A01C61627
:1023500018F5EC2DF0E0EA9DC001EB9D900DFA9D83
:10236000900D112470E00E94ED2F812FD11002C03A
:10237000860F01C0861B909126029F01290F311DF7
:10238000220F331F220F331F295C3C4F402F6F2D2C
:102390000E94C70EC394D9CF0E94A20510933303A5
:1023A000F092340300933503EE2051F06091320334
:1023B0007091330380913403909135030E9486100D
:1023C0000F900F900F900F90DF91CF911F910F9171
:1023D000FF90EF90DF90CF90BF90AF900895E2E331
:1023E000F3E09181282F438162818CE0890F0C9466
:1023F0005D1181E00C94EF11E2E3F3E09181282F6D
:102400004381628184EF890F0C945D1181E00C940B
:10241000FC11E2E3F3E062812FEF620F08F46FEF4B
:10242000282F438181810C945D1181E00C94091265
:10243000E2E3F3E062812FEF621B08F460E0282FF3
:10244000438181810C945D1181E00C941812E2E3C8
:10245000F3E043812CE0420F08F44FEF282F628114
:1024600081810C945D1181E00C942712E2E3F3E08A
:1024700043812CE0421B08F440E0282F62818181D7
:102480000C945D1181E00C94361220E00C945D11E7
:102490000F931F93CF93DF9300D000D0CDB7DEB75B
:1024A0008C018091230281110AC09E012F5F3F4F52
:1024B0004FEF6FEF0E94C70E8A8180932302F801CD
:1024C0008481813051F028F0823061F44091230200
:1024D0000AC08091230240E007C06091230240E0DF
:1024E00080E003C040E080E060E00E940511F80158
:1024F000248130E0C901019663E070E00E94013060
:1025000084830F900F900F900F90DF91CF911F91C8
:102510000F91089560913203669570E04BE050E0B2
:102520008CE091E00E945431892B19F481E0809372
:102530002F020E94FB239093280280932702089584
:102540009091320390FF35C09170811102C092606A
:1025500006C0853210F0986402C0880F982B9093C3
:102560003203662351F060913203709133038091FE
:102570003403909135030E94861060913203669572
:1025800070E04BE050E08CE091E00E945431892BE8
:1025900019F010922F0202C00E948A1281E08093EB
:1025A0002A024091350360913403809133030C94E7
:1025B00045120895682F90913203969581E0890F16
:1025C000853208F081E00C94A01281E00C94DA12BC
:1025D000682F9091320396958FEF890F09F484E26A
:1025E0000C94A01281E00C94E81261E00C94A0120B
:1025F000E2E3F3E080818160808386950C94F5129C
:102600008091320380FD0C94B9100C94F81260E0B4
:102610000C94A01280912D0281112EC00E942B22B9
:10262000811104C00E94C8220E94A2100E94821040
:102630006093320370933303809334039093350394
:102640006E7F61F40E94A2100E9482106093320398
:102650007093330380933403909335030E946F107B
:1026600010922F028091320380FF03C086950E9452
:10267000071381E080932D020895E2E3F3E0808167
:102680008160808386950C94071310922F02089521
:102690000F931F93CF93DF9380912F02882309F428
:1026A0008CC080912E02E0913203E695E81BE09306
:1026B0002902823049F4F0E0E25AFB4FE491CE2F38
:1026C000D0E009E311E149C0863049F4F0E0E55A71
:1026D000FB4FE491CE2FD0E00DE411E13EC08930F4
:1026E00051F4E695F0E0E85AFB4FE491CE2FD0E0AC
:1026F00006E310E132C08F3051F4E695F0E0EB5A7A
:10270000FB4FE491CE2FD0E00AEB1FE026C08531CD
:1027100049F4F0E0EE5AFB4FE491CE2FD0E00CE408
:102720001FE01BC0883181F0833239F4E0E5F4E02A
:10273000C591D49108E412E110C0843251F4C4EF81
:10274000D1E006ED1EE009C0C8EED3E005E11FE0D0
:1027500004C0C0EDD7E006EC1EE080912A02882379
:1027600089F010922A020E94FB239E012095309549
:10277000820F931F909328028093270210922C02BD
:1027800010922B0280912702909128020E94072428
:102790008C179D0790F0E0912702F0912802CE0F50
:1027A000DF1FD0932802C093270287E292E0F8014E
:1027B000DF91CF911F910F910994DF91CF911F91DC
:1027C0000F9108950F931F93CF93DF93C62FD42FAC
:1027D000022FFC0182818823C9F0609332020E949B
:1027E000FB23909331028093300280E28C0F88307B
:1027F00008F050C0C77081E001C0880FCA95EAF7A1
:10280000DF91CF911F910F910C94B2181091320269
:10281000161330C080913002909131020E9407243B
:10282000883C910538F5C0E2CD0F1D17B9F080E264
:10283000810F883040F4177081E001C0880F1A952D
:10284000EAF70E94B918C83048F481E09D2F9770CC
:1028500001C0880F9A95EAF70E94B218802F0E9453
:102860009F18C830B8F4D77081E001C0880FDA959E
:10287000EAF70AC080E28C0F883060F4C77081E00C
:1028800001C0880FCA95EAF7DF91CF911F910F9190
:102890000C94B918DF91CF911F910F9108959C016D
:1028A000CB01233F4CE53407F9F078F4283DFCE5F3
:1028B0003F07B9F0293D4CE5340711F1273D3C4570
:1028C00031F526E241EE61EE1EC0253FFCE53F07F3
:1028D00099F070F0263F3C45D1F427E245EE66EED4
:1028E00012C027E245EE0EC026E241EE60EE0BC0BC
:1028F00027E245EE64EE07C026E241EE62EE03C039
:1029000028E241E065EE0E94E21380E00895FC01B8
:102910008281882319F010923202089581E008958F
:102920001092B9008CE08093B8000895EF92FF9266
:102930000F931F93CF93DF93182FEB011092BC00DE
:1029400084EA8093BC000E94FB237C019091BC0030
:1029500097FD0EC0CF3F8FEFD807C1F30E94FB2336
:102960008E199F098C179D0788F38EEF9FEF2EC05D
:102970009091B900987F983041F09091B900987F7C
:10298000903119F08FEF9FEF21C01093BB0084E8C6
:102990008093BC000E94FB238C019091BC0097FDAA
:1029A0000CC0CF3F8FEFD807C1F30E94FB23801BE1
:1029B000910B8C179D0788F3D8CF8091B900887F41
:1029C000883111F08034F1F680E090E0DF91CF9112
:1029D0001F910F91FF90EF9008950F931F93CF9346
:1029E000DF93EB018093BB0084E88093BC000E94DE
:1029F000FB238C019091BC0097FD0EC0CF3F8FEF61
:102A0000D807C1F30E94FB23801B910B8C179D07F5
:102A100088F38EEF9FEF0CC02091B900287F81E0F2
:102A200090E0283211F480E090E091958195910931
:102A3000DF91CF911F910F9108950F931F93CF9323
:102A4000DF93EC0184E88093BC000E94FB238C019F
:102A50009091BC0097FD0EC0CF3F8FEFD807C1F318
:102A60000E94FB23801B910B8C179D0788F38EEF30
:102A70009FEF03C08091BB0090E0DF91CF911F9149
:102A80000F91089584E98093BC00089590933802D3
:102A9000809337020895E0913702F0913802309721
:102AA00021F00190F081E02D099480E00895E091FB
:102AB0003702F0913802309799F0209128012223B3
:102AC00059F02091790327FF07C0DC012C91119662
:102AD0002C93119725E02C930280F381E02D09942B
:102AE0000895E0913702F0913802309739F022E0F2
:102AF000DC012C930480F581E02D09940895209148
:102B00003502309136028217930771F090933602A6
:102B100080933502E0913702F0913802309721F02E
:102B20000680F781E02D09940895209133023091B9
:102B300034028217930771F090933402809333022A
:102B4000E0913702F0913802309721F00084F1854E
:102B5000E02D0994089585B7806885BF85B78068A2
:102B600085BF0895089508950C94B31508950C94A5
:102B7000B6150E94AB150E94B2150C94B41581E0F5
:102B800008950E94F2230E94D3040E9489240E9487
:102B90000A130C94B715CF92DF92EF92FF920F9326
:102BA0001F93CF93DF93CDB7DEB72B970FB6F89473
:102BB000DEBF0FBECDBF0E9400050E94BF15811170
:102BC00011C08FEF89838A831B820E94FB2381605F
:102BD000782F9D838C8349815A816B818D810E94DE
:102BE000AF1656C08AE3C82E82E0D82E00E010E06F
:102BF000E02E802F0E946705F60141916F01F42EAF
:102C0000F82631F40F5F1F4F0E30110589F7D9CF29
:102C10009091F50291FF04C08B870E946D058B8512
:102C200020E030E04F2D50E0922FBA01022E02C07A
:102C3000759567950A94E2F760FF24C02E83EF82B2
:102C400021E030E0690102C0CC0CDD1C9A95E2F76E
:102C500090E08C219D21892B09F420E028870E9497
:102C6000FB238160782F9A8789874E815F816885F1
:102C70008A850E94AF16F801E65CFD4F8081C82668
:102C8000C08206C02F5F3F4F2630310569F6BACFAC
:102C90000E941B26109139020E944B151817A1F0B3
:102CA0000E944B15809339022B960FB6F894DEBF25
:102CB0000FBECDBFDF91CF911F910F91FF90EF908D
:102CC000DF90CF900C94CC072B960FB6F894DEBF14
:102CD0000FBECDBFDF91CF911F910F91FF90EF906D
:102CE000DF90CF900895DC0111962C9111978C9173
:102CF000682F70E041E050E001C0440F8A95EAF788
:102D000012968C91129730E0882329F08091580216
:102D10008823E9F006C0F901E85BFD4F9081942318
:102D2000B1F086E0829FF001839FF00D1124E60F41
:102D3000F71FEE0FFF1FE75DFE4F808191818D939E
:102D40009C93F901E85BFD4F8081482B06C0F90197
:102D5000E85BFD4F40958081482340830895CF93E1
:102D6000DF93CDB7DEB72B970FB6F894DEBF0FBE5B
:102D7000CDBF942F4F83252F588769877A878B87FC
:102D80004A855B85452B21F02F3F09F59F3FF9F4DC
:102D9000DE01119686E0FD0111928A95E9F785E042
:102DA000FE01379601900D928A95E1F749815A818B
:102DB0006B817C818D819E810E946B1E2B960FB64C
:102DC000F894DEBF0FBECDBFDF91CF910895CE0145
:102DD00007960E947316DCCFFC01808191810E94CE
:102DE000392192959F70963041F48091580291E07C
:102DF000892780935802909357020895CF93DF93C9
:102E00001F92CDB7DEB7882309F42DC1682F823811
:102E1000C1F40E944B1581FD26C169E38091170121
:102E2000909118010E9434230E94C7212FEF81EE58
:102E300094E0215080409040E1F700C0000069E339
:102E400019C0833811F50E944B1580FD0CC163E554
:102E500080911701909118010E9434230E94C7218C
:102E60002FEF81EE94E0215080409040E1F700C0C8
:102E7000000063E580911701909118010E943F23A3
:102E80000F90DF91CF910C94C7218438C1F40E9438
:102E90004B1582FDE8C067E48091170190911801FD
:102EA0000E9434230E94C7212FEF81EE94E021502D
:102EB00080409040E1F700C0000067E4DBCF8CEF7A
:102EC000860F813A70F4862F69830E9424286981D5
:102ED0008111C9C080911701909118010E9434237B
:102EE000CFCF80E2860F883048F4677081E001C060
:102EF000880F6A95EAF70E947B21C2CF8BE5860F87
:102F0000833088F4653A29F0663A31F083E890E03E
:102F100005C081E890E002C082E890E00F90DF9168
:102F2000CF910C947F1588E5860F873108F091C00A
:102F3000683A09F445C0693A09F445C06A3A09F4A7
:102F400045C06B3A09F445C06C3A09F445C06B3B87
:102F500009F445C06C3B09F445C06D3A09F445C01D
:102F6000603B09F445C06E3A09F445C06F3A09F474
:102F700045C0613B09F445C0623B09F445C0633B71
:102F800009F445C0643B09F445C0653B09F445C0FC
:102F9000663B09F445C0673B09F445C0683B09F44A
:102FA00045C0693B09F445C06D3B09F445C06E3B23
:102FB00009F445C06A3B09F445C080E090E044C094
:102FC00082EE90E041C089EE90E03EC08AEE90E053
:102FD0003BC085EB90E038C086EB90E035C083EBDA
:102FE00090E032C084EB90E02FC087EB90E02CC0E3
:102FF0008CEC90E029C08DEC90E026C083E891E055
:1030000023C08AE891E020C082E991E01DC084E9F4
:1030100091E01AC081E292E017C083E292E014C00E
:1030200084E292E011C085E292E00EC086E292E076
:103030000BC087E292E008C08FE690E005C080E711
:1030400090E002C08AE292E00F90DF91CF910C9461
:103050009515603F40F0862F0E9423250F90DF9149
:10306000CF910C9410260F90DF91CF910895882373
:1030700009F464C0823879F40E944B1581FF5EC068
:1030800069E380911701909118010E9434230E94F6
:10309000C72169E310C08338B1F40E944B1580FF4B
:1030A0004DC063E580911701909118010E9434236F
:1030B0000E94C72163E580911701909118010E9439
:1030C0003F230C94C721843879F40E944B1582FF6A
:1030D00035C067E480911701909118010E94342354
:1030E0000E94C72167E4E7CF9CEF980F913A10F454
:1030F000682FE1CF90E2980F983050F4877091E0FC
:1031000001C0990F8A95EAF7892F0E948121D9CFB2
:103110009BE5980F933020F480E090E00C947F15AD
:1031200098E5980F973120F480E090E00C94951585
:10313000803F20F00E948B250C9410260895CF9399
:10314000C82F0E94FE16C93349F42FEF87EE93E093
:10315000215080409040E1F700C000008C2FCF91BB
:103160000C943718882321F00E947B210C94C721EE
:103170000895882321F00E9481210C94C72108958D
:10318000BF92CF92DF92EF92FF920F931F93CF9354
:10319000DF937C01062FC72FFC01158112951F704C
:1031A000D281D1110E949B210E947121882379F044
:1031B000DD2369F080E2800F883048F082E00E94D1
:1031C00012220E94712191E0B82EB92601C0B12CC3
:1031D000CC2EC2948FE0C822D12CF601EF58FF4FBD
:1031E0000C9415308C2F807FCF70882311F0C295FE
:1031F000C07FDD2399F0CC2309F4C7C180E2800FA2
:10320000883010F0011104C08C2F0E947B2103C074
:103210008C2F0E948E210E94C721B7C1802F0E944F
:103220003718CC2309F42DC280E2800F883010F0CB
:10323000011104C08C2F0E94812103C08C2F0E9499
:1032400094210E94C7211DC28C2F807FCF708032B5
:1032500011F0C295C07F002319F00130C9F024C0DD
:10326000DD2371F0112341F0113031F40E94AE21C1
:103270008C2B0E94B42105C20E94AE218C2B0EC063
:10328000112319F0113009F4FCC10E94BD211EC0A8
:10329000DD2339F0123008F0F4C18C2F0E94B218EF
:1032A000F0C11111EEC112C0DD2319F01123A9F3F1
:1032B0006CC1112359F0093309F078C1FFEF27EEF3
:1032C00083E0F15020408040E1F76EC18C2F0E94D6
:1032D000B918D7C18C2F86958695837090E000979A
:1032E00019F0019761F0CDC1DD2321F0802F9C2FD3
:1032F000937002C080E090E00E947F15CDC1DD2375
:1033000021F0802F9C2F937002C080E090E00E94FB
:103310009515C2C1DD23F9F0053F51F0063F71F06C
:10332000043FA9F4809173039091740381600BC0F2
:103330008091730390917403826005C08091730340
:103340009091740384609093740380937303802F2F
:103350000E9423251EC0053F51F0063F71F0043F37
:10336000A9F480917303909174038E7F0BC08091B8
:103370007303909174038D7F05C0809173039091C6
:1033800074038B7F9093740380937303802F0E9448
:103390008B250E94102680C18C2F837009F049C0B4
:1033A000D11176C1402F429546954770440F440F86
:1033B000602F6F70862F90E0A0E0B0E0042E04C074
:1033C000880F991FAA1FBB1F0A94D2F704FF10C0D1
:1033D0000FE010E020E030E004C0000F111F221FBA
:1033E000331F4A95D2F7009510952095309503C06C
:1033F00000E010E09801C695C695C370D0E0BC010E
:10340000CD01602B712B822B932BC230D10559F04B
:10341000C330D10559F0219719F00E94B01F38C16F
:103420000E949E1F35C10E94C21F32C10E949C1F74
:103430002FC1DD2319F08C2F817001C08695882360
:1034400009F426C1402F429546954770440F440F1A
:10345000602F6F70862F90E0A0E0B0E0042E04C0D3
:10346000880F991FAA1FBB1F0A94D2F704FF10C030
:103470000FE010E020E030E004C0000F111F221F19
:10348000331F4A95D2F7009510952095309503C0CB
:1034900000E010E09801C695C695C370D0E0BC016D
:1034A000CD01602B712B822B932BC230D10559F0AB
:1034B000C330D10559F0219719F00E947620E8C059
:1034C0000E946420E5C00E948820E2C00E94D71FAD
:1034D000DFC0CF70DD2339F08C2F0E94FD1F802FBD
:1034E0000E94B218D5C0802F0E94B9188C2F0E945C
:1034F0001E20CEC0023FF9F028F4003F41F0013F0A
:1035000099F03FC0033FF1F0043F31F13AC0DD23B1
:1035100039F01111B6C08C2F8F710E944320B1C0B9
:10352000123008F0AEC0F7CFDD2339F08C2F8F7149
:103530000E94FD1FA6C0DD23C9F38C2F8F710E944E
:103540001E209FC0DD2329F08C2F8F710E94E81F61
:1035500098C00E94E31F95C0DD2349F0CF718C2FE6
:103560000E94FD1F63E08C2F0E94FD218AC081E034
:103570000E941222123008F484C082E00E941222BB
:1035800080C0DD2331F0112389F2802F0E94FE16C6
:1035900078C0112391F2093349F49FEFE7EEF3E08D
:1035A0009150E040F040E1F700C00000802F0E9401
:1035B000371867C04C2F4F70602FC7010E94050A53
:1035C0000E940F1F69C0023FB1F028F4003F49F08C
:1035D000013FF9F028C0043FB9F058F0053F71F001
:1035E00022C0DD2309F447C09091580281E0892769
:1035F00008C081E0D827D09358023DC0D1113BC00C
:1036000081E08093580237C0D11135C01092580222
:1036100032C0DD2329F080915702882329F329C085
:10362000112311F328C0809157021123C1F0882380
:1036300041F09091580281E08927809358021092BE
:103640005702802FDD2319F00E94FE1614C00E943D
:10365000371886E0F70111928A95E9F70CC08823A4
:1036600051F0D11108C09091580281E089278093D0
:103670005802109257024C2F4F70602FC7010E94C2
:10368000080AF8E0CF1AD10824E0C216D10420F4C9
:103690000E944B150E94CC07BB20D1F00E946D21E7
:1036A00080FD16C0F70112820E9467210E94FD1F53
:1036B000C7010E94721B0E946721DF91CF911F9169
:1036C0000F91FF90EF90DF90CF90BF900C941E2051
:1036D000DF91CF911F910F91FF90EF90DF90CF90EE
:1036E000BF9008950F931F93CF93DF93EC018881D0
:1036F00099812B813C81232BB9F09F3F11F48F3F9F
:1037000099F0CE010E94E507882371F068817981E4
:103710008A810E9444218C010E949A200E949B1F52
:10372000B801CE010E94C018DF91CF911F910F9177
:103730000895882321F00E948E210C94C7210895BA
:10374000882321F00E9494210C94C72108950E949F
:103750009B210E94AB210E94C7210E94B6260E9495
:10376000102680E090E00E947F1580E090E00C94AD
:10377000951580911701909118010E944A230C948D
:10378000A71B0E948B210C94B91BE92FE295EF70C7
:10379000F0E03297EE30F105B0F4EF57FF4F0C94A4
:1037A0001530803F91F018F4883E68F40EC0843FD5
:1037B00051F40BC0883E48F0813F29F406C093FBCA
:1037C000882780F9089580E0089581E008950E9497
:1037D00039210E94C51B0895CF93DF9300D000D0FC
:1037E0001F92CDB7DEB70F900F900F900F900F90F4
:1037F000DF91CF910895CF93DF9300D000D000D018
:10380000CDB7DEB726960FB6F894DEBF0FBECDBF9C
:10381000DF91CF9108951F93CF93DF93C091590209
:1038200016E080915A02C81799F0D0E01C9FF00171
:103830001D9FF00D1124E55AFD4F40815181628199
:103840007381848195810E94FB1B2196C770E9CF0B
:10385000DF91CF911F91089540918B0250918C027E
:1038600060918D0270918E0280918F0290919002F2
:103870000C94FB1B8091900282958F7009F054C0CC
:1038800080918D02882309F44FC080915902A09144
:103890005A0260918B0270918C0240918E0250917D
:1038A0008F02B6E08A1709F43FC090E04115510538
:1038B000C1F17F3F11F46F3FA1F1B89FF001B99FB3
:1038C000F00D1124E55AFD4F218172132AC0208189
:1038D000621327C02281211124C02381348124173F
:1038E000350710F421503109241B350B283C3105D4
:1038F000C0F4209190022F7020612093900226E066
:10390000289FF001299FF00D1124E05AFD4F80817E
:103910008F70806180838BE892E00E94721B0C9410
:103920000B1C01968770BECF0895CF92DF92EF9265
:10393000FF920F931F93CF93DF93CDB7DEB76297BC
:103940000FB6F894DEBF0FBECDBF8C0185E0F80145
:10395000DE011D9601900D928A95E1F7D8014C91F8
:1039600011965C91119712966C9112971396CD90C7
:10397000DC90149730918B0270918C0280918E02B2
:1039800090918F02009709F46BC17F3F19F43F3F7C
:1039900009F466C1E0908D02EE2009F4C0C02091C8
:1039A0009002C816D90628F0F601E81BF90BCF01E2
:1039B00004C0809590958C0D9D1DFF24F394883C48
:1039C000910578F0F12C207F09F0C6C07C2DD98AB2
:1039D000C88A89890E94EC1B8BE892E00E94721BC6
:1039E000B1C0822F807F09F046C0751314C0341314
:1039F00012C0611110C02F702061209390020E94AC
:103A00002C1C8BE892E00E94721B80919002D801DE
:103A100015968C932EC0CD2819F15F3F11F44F3FBE
:103A2000F9F0F62E61111CC08091590220915A02C2
:103A300036E0821709F45AC090E0389FF001399FB0
:103A4000F00D1124E55AFD4F7181571306C07081A6
:103A5000471303C07281711103C001968770E9CFCB
:103A6000F62E662309F427C180919002816080932D
:103A70009002F12C20C1751308C0341306C06111E7
:103A800004C080919002D801C3C04D875E878D85A8
:103A90009E856A8B0E94E71B6A898823E1F1662371
:103AA000D1F120919002822F82958F7090E0029741
:103AB00074F080918B0290918C0298878F83198685
:103AC000DB86CA862C87CE0107960E94721B86E091
:103AD000F801ABE8B2E001900D928A95E1F70E94FF
:103AE0003A1C0E942C1CFF24F394E5C04D875E878E
:103AF0008D859E850E943921292F22952F7030E0D7
:103B0000223031050CF0CBC09F7009F0C5C0805E3B
:103B1000883008F4D0C0C8010E94721BE4CFC816D8
:103B2000D90608F453C0F601E81BF90BCF01883C15
:103B3000910508F450C0F12C7C2DD98AC88A898956
:103B40000E94EC1BEBE8F2E086E0DF011D928A9513
:103B5000E9F70E942C1CAFC0751314C0341312C0B7
:103B6000611110C080919002F8018583C8010E9404
:103B7000721B86E0EBE8F2E0DF011D928A95E9F71F
:103B8000FE2C99C04D875E878D859E856A8B0E942D
:103B9000E71B6A89882309F4BECF662309F4BBCFEB
:103BA00020919002822F82958F7090E002970CF402
:103BB0008ECF80918B0290918C029A8389831B8295
:103BC000DD82CC822E83CE0101967FCF80959095A9
:103BD0008C0D9D1DACCFF62E662309F49CCF75137A
:103BE0002EC034132CC02091900220FD1FC0822FC4
:103BF00082958F70D9F0D80115962C9315978F3038
:103C000049F08F5F982F9295907F822F8F70892B2C
:103C100015968C93C8010E94721B86E0F801ABE8F0
:103C2000B2E001900D928A95E1F793CF86E0F8011A
:103C3000ABE8B2E001900D928A95E1F73CC04D8768
:103C40005E878D859E850E94E71B811140CF809104
:103C50009002816080939002C8010E94721B2BC069
:103C6000662309F458CF4D875E878D859E850E9417
:103C7000E71BF82E882309F44ECF86E0F801ABE865
:103C8000B2E001900D928A95E1F78BE892E00E94F4
:103C9000EC160E943A1C5DCF811139CF0CC0243044
:103CA00031050CF038CF9F7009F431CFF8019581C0
:103CB000907F09F02CCF8F2D62960FB6F894DEBF5F
:103CC0000FBECDBFDF91CF911F910F91FF90EF906D
:103CD000DF90CF9008951F93CF93DF93CDB7DEB7DA
:103CE0002C970FB6F894DEBF0FBECDBF4F83588719
:103CF00069877A878B879C87CE0107960E94951CDF
:103D0000882369F08F8198852A853B85232BF1F1E3
:103D10009F3F09F063C08F3F09F060C037C086E065
:103D2000FE013796DE01119601900D928A95E1F71A
:103D30006F817885EA85FB85309741F17F3F11F4EB
:103D40006F3F21F120915A0230E0C901019687703E
:103D500099274091590250E08417950709F447C00C
:103D600069837A83FD83EC8396E0929FD001939FD1
:103D7000B00D1124A55ABD4FFE01319601900D9250
:103D80009A95E1F780935A020E940B1C16E08091ED
:103D9000590290915A028917C1F1189FC00111244C
:103DA000855A9D4F0E94951C882379F1E091590214
:103DB0001E9FF0011124E55AFD4F4081518162811F
:103DC0007381848195810E94FB1B8091590290E050
:103DD00001968770992780935902D9CF4F815885D2
:103DE00069857A858B859C850E94FB1BCFCF0E94BD
:103DF000C11B10925A0210925902EBE8F2E086E0E1
:103E0000DF011D928A95E9F7C1CF2C960FB6F89481
:103E1000DEBF0FBECDBFDF91CF911F910895EF920E
:103E2000FF920F931F93CF93DF938C01892B09F49B
:103E30006CC0F12CEE24E394E8012196F801849102
:103E4000843740F4843008F051C0813081F08230F2
:103E500019F15BC0853709F444C0A8F19CE7980FBD
:103E6000903708F052C08F770E94371841C00E5F1C
:103E70001F4FFE01C49180E28C0F883048F4C77058
:103E80008E2D01C0880FCA95EAF70E949E2114C0AA
:103E90008C2F0E94FE162DC00E5F1F4FFE01C49195
:103EA00080E28C0F883058F4C7708E2D01C0880FC7
:103EB000CA95EAF70E94A4210E94C7211AC08C2F3C
:103EC0000E94371816C00E5F1F4FFE01C491CC230D
:103ED00081F08FE99FE00197F1F700C00000C15029
:103EE000F6CF0E5F1F4FFE01F49003C00E94FE1636
:103EF0008E018F2D882309F49FCFEFE9FFE03197E2
:103F0000F1F700C000008150F5CFDF91CF911F91F4
:103F10000F91FF90EF90089508950C948C1F0E94CC
:103F20008D1F6093CC027093CD028093CE0290934C
:103F3000CF020C94A71B08950C948F1F0F931F930F
:103F40000091CC021091CD022091CE023091CF028F
:103F5000602B712B822B932B1F910F910C948F1F31
:103F60000F931F930091CC021091CD022091CE02AD
:103F70003091CF0260237123822393231F910F91ED
:103F80000C948F1F0F931F930091CC021091CD02C0
:103F90002091CE023091CF0260277127822793278C
:103FA0001F910F910C948F1F08950C94D41F0E94A1
:103FB000D51F6093C8027093C9028093CA02909380
:103FC000CB020C94A71B60E070E0CB010C94D71FD0
:103FD0000F931F9341E050E060E070E08A019B0185
:103FE00004C0000F111F221F331F8A95D2F7C90189
:103FF000B8011F910F910C94D71F0F931F9341E0AD
:1040000050E060E070E004C0440F551F661F771F4A
:104010008A95D2F78091C8029091C902A091CA02F4
:10402000B091CB028A019B01082B192B2A2B3B2B29
:10403000C901B8011F910F910C94D71F0F931F93C3
:1040400041E050E060E070E004C0440F551F661F7F
:10405000771F8A95D2F7409550956095709580911D
:10406000C8029091C902A091CA02B091CB028A0104
:104070009B01082319232A233B23C901B8011F915F
:104080000F910C94D71F0F931F9341E050E060E015
:1040900070E004C0440F551F661F771F8A95D2F742
:1040A0008091C8029091C902A091CA02B091CB023E
:1040B0008A019B01082719272A273B27C901B80134
:1040C0001F910F910C94D71F0F931F930091C8025B
:1040D0001091C9022091CA023091CB02602B712B42
:1040E000822B932B1F910F910C94D71F0F931F932B
:1040F0000091C8021091C9022091CA023091CB02EE
:1041000060237123822393231F910F910C94D71F57
:104110000F931F930091C8021091C9022091CA0207
:104120003091CB0260277127822793271F910F912F
:104130000C94D71F0895292F220F920F990F890FE2
:10414000A82FA695A695A695877051E001C0550F9A
:104150008A95EAF785E0A89FD001112420E030E09D
:1041600070E0F901EA0FFB1FEF56FD4F4081CB01D4
:10417000022E02C0969587950A94E2F781709927DE
:10418000819584278523842780832F5F3F4F2530A7
:10419000310539F70895292F220F920F990F890FB2
:1041A000682F669566956695982F977085E0689F4D
:1041B000B001112440E050E080E0FA01E60FF71F63
:1041C000EF56FD4F208130E0092E02C0369527952D
:1041D0000A94E2F721703327042E01C0220F0A94BB
:1041E000EAF7822B4F5F5F4F4530510531F7089555
:1041F000BF92CF92DF92EF92FF920F931F93CF93D4
:10420000DF938C01C090CC02D090CD02E090CE0222
:10421000F090CF028091C8029091C902A091CA0289
:10422000B091CB02C82AD92AEA2AFB2ACFE1D0E0F2
:10423000D701C6010C2E04C0B695A7959795879512
:104240000A94D2F780FF07C0BC2EB8018C2F0E94C1
:10425000230A019719F4219758F7B12C8B2DDF9180
:10426000CF911F910F91FF90EF90DF90CF90BF9073
:104270000895CF93DF93EC010E94F820BE010E94C5
:10428000230ADF91CF9108951F93CF93DF93EB0122
:1042900090915602992321F0CB010E94392113C03D
:1042A000882349F0CB010E94F820182F682FCE01F7
:1042B0000E949B2004C0CB010E94CB20182FBE017E
:1042C000812F0E94230ADF91CF911F910895809141
:1042D000D00285958595859508958091D002877047
:1042E00008959091D002977081E009F480E00895DC
:1042F0008091F40208959091F402892B8093F40246
:10430000089580959091F40289238093F402089592
:104310008093F40208951092F40208959091F302AC
:10432000892B8093F302089580959091F30289235D
:104330008093F30208951092F30208959091F2028F
:10434000892B8093F202089580959091F20289233F
:104350008093F20208951092F20208958091D102A2
:10436000089508950C94B1219091D102981721F0ED
:104370008093D1020C94B22108958091D1028823B8
:1043800029F01092D10280E00C94B2210895E091BE
:104390001701F09118018091F4028083E0911701D8
:1043A000F091180190818091F302892B8083E09134
:1043B0001701F091180190818091F202892B80837E
:1043C0008091D102882381F0E0911701F0911801CA
:1043D0009081892B808380911701909118010E9410
:1043E000CF2281110E94BD21809117019091180167
:1043F0000C94571508950C94FA2198E0899F900128
:104400001124262B2093D0020E94FD1F8091D00200
:104410008595859585950C94FB211092D00280E0BE
:104420000C94FB212091D002809582238093D002AE
:10443000982F977079F430E0482F082E000C550B18
:104440002417350739F08595859585950E941E209E
:104450000C940D22089580E090E00E946F3121E0DD
:104460008C3E9E4F09F020E0822F089582E090E07C
:104470000C94613183E090E00C946131CF9384E03F
:1044800090E00E946131C82F81E290E00E9461318A
:104490002C2F30E0A901582BCA01CF910895CF935A
:1044A000C92F682F84E090E00E9475316C2F81E263
:1044B00090E0CF910C9475318FE090E00C946931CD
:1044C000AB01BC018FE090E00C948731AB01BC01E3
:1044D00083E190E00C94873160E070E0CB010C94B4
:1044E00066226CEE7EEF80E090E00E94933160E007
:1044F00082E090E00E94753160E083E090E00E94ED
:1045000075311092CC021092CD021092CE02109210
:10451000CF0260E084E090E00E94753160E081E2CB
:1045200090E00E94753160E085E090E00E94753176
:1045300060E086E090E00E9475316FEF87E090E0E8
:104540000E94753140E050E0BA0188E090E00E949E
:10455000873160E08DE090E00E94753140E050E0EE
:10456000BA0188E190E00E94873160E087E190E045
:104570000E94753140E050E0BA018CE190E00E9469
:10458000873160E080E290E00E9475310C94F20681
:104590000C947122682F8EE090E00C947531FC0130
:1045A000329680912801882331F08091790387FF2A
:1045B00002C09EE101C096E080E0915028F0219178
:1045C0002223D9F38F5FF9CF08959C01FC01329625
:1045D0009FEF80E04191461789F09F3F19F4411108
:1045E00001C0982F8F5F8630A9F79F3F39F0F901FE
:1045F000E90FF11D97FDFA95628308950895FC0176
:10460000329608962081261301C010823196E81751
:10461000F907C1F70895262F2695269526952E3160
:1046200068F4FC01E20FF11D677021E030E001C089
:10463000220F6A95EAF78281282B22830895262F7C
:104640002695269526952E3170F4FC01E20FF11D7A
:10465000677021E030E001C0220F6A95EAF72095EB
:10466000828128232283089520912801222329F082
:104670002091790327FD0C940B230C94E5222091C3
:104680002801222329F02091790327FD0C941F2370
:104690000C94FF2220912801FC013296222331F054
:1046A0008091790387FF02C08EE101C086E0DF01BF
:1046B0001D928A95E9F7089508950C945C230E9451
:1046C0005D2380917F03843009F439C01092F60293
:1046D00020E488E190E00FB6F894A89580936000FC
:1046E0000FBE2093600080E00E94CC070E9445131B
:1046F0008091F70281110AC081E08093F7028091D6
:10470000320381708093F8020E94D1100E945D23D1
:1047100083B7817F846083BF83B7816083BF7894D0
:10472000889583B78E7F83BF0FB6F894A895809144
:104730006000886180936000109260000FBE089551
:104740000895CF930E94ED040E9400050E94A023CB
:10475000C0E08C2F0E946705811104C0CF5FCE306E
:10476000C1F701C081E0CF91089508950C94B5235D
:104770000E94C11B0E944B150E94CC071092F702A9
:104780008091F80281110E943D130E948A120C94BC
:10479000B6231F920F920FB60F9211248F939F93FF
:1047A000AF93BF938091F602811113C0809175037E
:1047B00090917603A0917703B09178034196A11D63
:1047C000B11D8093750390937603A0937703B09304
:1047D0007803BF91AF919F918F910F900FBE0F9073
:1047E0001F90189582E084BD93E095BD9AEF97BD28
:1047F00080936E0008952FB7F8948091750390917F
:104800007603A0917703B09178032FBF0895CF92DC
:10481000DF92EF92FF920F931F932FB7F89440917E
:1048200075035091760360917703709178032FBFE1
:104830006A017B01EE24FF248C0120E030E0C016E9
:10484000D106E206F30610F4415051099A01281BE3
:10485000390BC9011F910F91FF90EF90DF90CF901E
:10486000089578941F920F920FB60F9211248F9390
:104870009F93AF93BF938091750390917603A0911E
:104880007703B09178030196A11DB11D8093750344
:1048900090937603A0937703B0937803BF91AF9181
:1048A0009F918F910F900FBE0F901F901895F894C5
:1048B00081E08093E00080E28093D800E9ECF0E0B2
:1048C00010828FE19EE40197F1F700C000001DBA4D
:1048D000109268001CBC10BE1FBA10927A00109291
:1048E0006E0010926F001092710010927200108290
:1048F000ECEBF0E0108214B817B81AB81DB810BA73
:10490000108215B818B81BB81EB811BA0C94003F25
:1049100008950E942B22811102C00E94C8220E9489
:1049200036228093F5020E943E2290937A03809370
:1049300079030E943A22682F70E080E090E00C94A6
:104940009C1F8091FD0280FF0BC060911C0185E0DF
:10495000689FB001112475956795759567952BC073
:1049600081FF09C060911C0185E0689FB00111249E
:104970007595679520C082FF07C060911C0185E096
:10498000689FB001112417C09091FC029923D1F0C7
:1049900060911B01961788F720911C0185E0289FE4
:1049A00090011124929FA001939F500D112470E05B
:1049B000CA010E9401306038710540F4611571052B
:1049C00039F002C065E070E0862F08958FE7089502
:1049D00081E008958091FD0280FF08C060911A0176
:1049E00070E0759567957595679521C081FF06C044
:1049F00060911A0170E07595679519C082FF04C037
:104A000060911A0170E010C09091FC029923C1F0EE
:104A1000609119019617A0F780911A01899FC00132
:104A2000112470E00E9401306038710528F461158E
:104A3000710521F0862F08958FE7089581E008958C
:104A400061E070E0F4CF803F21F40E94A1248195C1
:104A500004C0813F29F40E94A1248093010308959A
:104A6000823F21F40E94A124819504C0833F29F450
:104A70000E94A124809300030895893F19F40E94A5
:104A8000EA2405C08A3F31F40E94EA24819580938C
:104A9000020308958B3F21F40E94EA24819504C00B
:104AA0008C3F29F40E94EA24809303030895843FF5
:104AB00021F48091FF02816017C0853F21F480912D
:104AC000FF02826011C0863F21F48091FF02846062
:104AD0000BC0873F21F48091FF02886005C0883FAA
:104AE00031F48091FF0280618093FF0208958D3F31
:104AF00021F48091FD0281600BC08E3F21F48091F2
:104B0000FD02826005C08F3F29F48091FD02846020
:104B10008093FD020895803F39F48091010387FF5F
:104B20006CC01092010369C0813F29F48091010398
:104B30001816BCF362C090910003823F29F497FFDE
:104B40005CC01092000359C0833F19F41916CCF3CE
:104B500054C0893F41F48091020318160CF04DC0F7
:104B6000109202034AC08A3F29F48091020387FF12
:104B700044C0F6CF8B3F39F48091030387FF3DC0DB
:104B8000109203033AC08C3F29F480910303181656
:104B9000BCF333C0843F21F48091FF028E7F17C0A5
:104BA000853F21F48091FF028D7F11C0863F21F463
:104BB0008091FF028B7F0BC0873F21F48091FF0221
:104BC000877F05C0883F31F48091FF028F7E8093FC
:104BD000FF0213C08D3F21F48091FD028E7F0BC038
:104BE0008E3F21F48091FD028D7F05C08F3F29F417
:104BF0008091FD028B7F8093FD02809100038111E3
:104C00000EC08091010381110AC0809102038111BD
:104C100006C080910303811102C01092FC02089526
:104C20008EEF92E00E9471150E94FB239093FB028D
:104C30008093FA0208951F93CF93DF938091FA0235
:104C40009091FB020E940724AC019091FC029923F1
:104C500021F020911D0130E006C02091F9028AE088
:104C6000289F900111244217530708F47BC08091BC
:104C70000003C0910103D09102031091030381113D
:104C800007C0C1116BC0D11169C0111167C06AC0E2
:104C90009F3F19F09F5F9093FC02181624F40E9426
:104CA000A124809300038091000387FF05C00E9428
:104CB000A1248195809300031C1624F40E94A12452
:104CC000809301038091010387FF05C00E94A12406
:104CD000819580930103309100033323E1F020910B
:104CE00001032223C1F045EB3403C0011124892FB5
:104CF000990F990B009709F481E08093000335EB3D
:104D00002303C0011124892F990F990B009709F4EF
:104D100081E0809301031D1624F40E94EA2480930D
:104D200002038091020387FF05C00E94EA24819557
:104D300080930203111624F40E94EA248093030353
:104D40008091030387FF05C00E94EA248195809328
:104D50000303DF91CF911F910C9410269F3F09F020
:104D600099CFA1CFDF91CF911F910895EEEFF2E09F
:104D700086E0DF011D928A95E9F71092FC021092FD
:104D8000FD020895833081F128F4813059F082309A
:104D9000D1F00895853009F449C0B8F1863009F49E
:104DA00056C008958091F902262F30E0280F311D5A
:104DB0002F3F310524F4680F6093F90208958FEFB7
:104DC0008093F902089580911D01262F30E0280F6D
:104DD000311D2F3F310524F4680F60931D010895A4
:104DE0008FEF80931D01089580911C01262F30E0E4
:104DF000280F311D2F3F310524F4680F60931C01EB
:104E000008958FEF80931C01089580911B01262F38
:104E100030E0280F311D2F3F310524F4680F6093D7
:104E20001B0108958FEF80931B01089580911A0153
:104E3000262F30E0280F311D2F3F310524F4680F55
:104E400060931A0108958FEF80931A01089580915D
:104E50001901262F30E0280F311D2F3F310524F492
:104E6000680F6093190108958FEF809319010895D9
:104E7000833011F128F4813049F0823091F00895A7
:104E8000853081F120F18630C1F108958091F902D9
:104E9000681720F4861B8093F90208951092F90296
:104EA000089580911D01681720F4861B80931D01D1
:104EB000089510921D01089580911C01681720F437
:104EC000861B80931C01089510921C010895809107
:104ED0001B01681720F4861B80931B010895109214
:104EE0001B01089580911A01681720F4861B809396
:104EF0001A01089510921A010895809119016817F6
:104F000020F4861B809319010895109219010895C9
:104F10000F931F93482F50E0FA013597EF33F105B7
:104F200008F07FC0E157FF4F0C9415300E94C82253
:104F300071C08091F502817F8E7F8093F50281E0C0
:104F4000809305036FC00E94C11B0FEF13ED20E398
:104F5000015010402040E1F700C000000E9457249B
:104F600059C08091F502982F9095917090FB80F92F
:104F70008093F50291114EC0897F877F10C0809188
:104F8000F50281FB222720F991E0922790FB81F91D
:104F90008093F5029923F1F18091F502816080936D
:104FA000F50238C08091F50282FB222720F991E0BA
:104FB000922790FB82F9ECCF8091F50283FB2227A8
:104FC00020F991E0922790FB83F9E2CF0E94C11B68
:104FD0008091790387FB222720F991E0922790FBAB
:104FE00087F98093790316C0895301C08D5141E040
:104FF00050E060E070E08A019B0104C0000F111FC7
:10500000221F331F8A95D2F7C901B8010E949C1F45
:105010000E94C11B81E006C061E070E080E090E08A
:10502000F5CF80E01F910F91089580E0089580E012
:1050300008958E518A3030F4E82FF0E0EA50FE4FA8
:105040008081089580E00895CF93C82F8091050353
:10505000813071F018F08230E1F184C00E94782133
:10506000813151F00E947821823209F07DC004C064
:105070000E947821813149F48C2F0E9415288111DA
:1050800009C08C2F0E94882722C00E94782182327A
:1050900021F4F2CF81E090E01AC08C2F0E941728F3
:1050A000811114C0C43179F048F4CB3079F0C031AB
:1050B00009F05EC082E08093050308C0C93219F090
:1050C000C83321F055C01092050352C081E08170B1
:1050D00051C0C93279F108F5C43161F1A0F4C7308B
:1050E00009F044C01092F90284E180931D01C0933D
:1050F0001C018CE380931B0188E080931A0188E2F5
:105100008093190133C082EE8C0F863078F58C2F96
:105110000E9419288093040329C0CE34E9F020F4BA
:10512000CB3421F56AE013C0C13579F0C235F1F412
:1051300061E00DC080910403882319F010920403EC
:1051400015C081E08093050315C061E006C0809121
:1051500004030E94C2260AC06AE0809104030E94F0
:10516000382704C01092050380E004C081E002C02B
:1051700080E0ADCFCF9108958091260308950F93DD
:105180001F93CF93DF9300D01F92CDB7DEB78C0172
:105190000E94262B823011F0843021F584E089832F
:1051A0001B830A8382E08093E9008FEF9091E800EF
:1051B000815095FD06C095ED9A95F1F7000081119B
:1051C000F5CF8091E80085FF0DC040E050E063E03E
:1051D00070E0CE0101960E94432B8091E8008E770B
:1051E0008093E8000F900F900F90DF91CF911F9167
:1051F0000F910895CF93DF9300D01F92CDB7DEB704
:1052000020917F03243031F523E0298380589109D0
:105210009B838A8382E08093E9008FEF9091E8007E
:10522000815095FD06C095ED9A95F1F7000081112A
:10523000F5CF8091E80085FF0DC040E050E063E0CD
:1052400070E0CE0101960E94432B8091E8008E779A
:105250008093E8000F900F900F90DF91CF91089509
:10526000CF93DF93EC010E94262B823011F0843023
:10527000F9F482E08093E9009FEF8091E80091507B
:1052800085FD06C085ED8A95F1F700009111F5CFF7
:105290008091E80085FF0CC040E050E066E070E0DF
:1052A000CE010E94432B8091E8008E778093E80026
:1052B000DF91CF910895CF93DF93EC010E94262BCD
:1052C000823011F08430D9F580912801882339F09B
:1052D0008091790387FF03C060E282E002C068E04A
:1052E00081E08093E9008FEF9091E800815095FD77
:1052F00006C095ED9A95F1F700008111F5CF8091E8
:10530000E80085FF1CC080912801811105C040E0A4
:1053100050E068E070E003C070E040E050E0CE0193
:105320000E94432B8091E8008E778093E80080E212
:10533000FE01A6E0B3E001900D928A95E1F7DF91BE
:10534000CF91089580917E03811109C00E94D82CCD
:105350000E94352D8091E20084608093E2000895E0
:1053600010927E030895089508950C94B82342E0A6
:1053700061EC81E00E94522C42E261EC82E00C94EC
:10538000522C80918103833009F460C030F4813065
:1053900071F0823009F499C008958A3009F485C00B
:1053A0008B3009F46BC0893009F0A7C020C0809110
:1053B0008003813A09F0A1C08091E800877F809343
:1053C000E8008091840390918503892B21F460E2A9
:1053D00086E093E003C060E080E090E070E00E942F
:1053E0008E2B8091E8008B778093E8000895809160
:1053F0008003813209F081C08091840390918503FC
:10540000029708F07AC08091E800877F8093E800D7
:105410008091E80082FD05C080917F038111F8CF63
:105420006CC02091F3008091F20090E0922B0297E3
:1054300029F48091F1008B7F813021F48091F1007B
:10544000809326038091E8008B7753C0809180037E
:10545000813A09F052C08091840390918503892B91
:1054600009F04BC08091E800877F8093E80080912D
:10547000E80080FFFCCF8091280136C08091800336
:105480008132D9F58091840390918503892BA9F508
:105490008091E800877F8093E8000E94872C8091AC
:1054A0008203809328010C94C11B80918003813278
:1054B00021F58091E800877F8093E8000E94872C87
:1054C0008091830380932703089580918003813A1C
:1054D000A1F48091E800877F8093E8008091E80044
:1054E00080FFFCCF809127038093F1008091E8003A
:1054F0008E778093E8000C94872C089584B7877F7B
:1055000084BF0FB6F894A89580916000886180935D
:105510006000109260000FBE80E8809361001092DE
:1055200061000E94B9150E94D82C0E94352D8091EF
:10553000E20084608093E20078940E94C42F0E946D
:10554000C1158EE191E00E94461580917F03853060
:1055500069F40E945F2380917D038823B1F30E9448
:10556000A123882391F30E942D2BEFCF0E94CB150E
:105570000E944813EACF0C94BD2A292F33272330E9
:105580003105C9F064F42130310581F02230310554
:1055900009F04CC08BE390E021EA36E04BC02132A9
:1055A000310521F12232310589F140C082E190E0DC
:1055B0002CED36E03FC099278130910571F02CF435
:1055C000892BA1F5EDE9F6E00DC08230910541F09F
:1055D000039761F5E7E6F6E005C0E5E8F6E002C00E
:1055E000EDE6F6E0849190E09F0124C0611571051D
:1055F00041F061307105D1F489E090E02CEC36E0A7
:1056000019C089E090E023EB36E014C06115710504
:1056100041F06130710551F480EC90E02EEE36E0FF
:1056200009C080E490E02EEA37E004C080E090E01A
:1056300020E030E0FA0131832083089580917F03D8
:10564000843011F081E0089582E00895809128036C
:10565000811102C00C941E2B089580E189BD82E166
:1056600089BD09B400FEFDCF8091D8008F7D809365
:10567000D8008091E00082608093E0008091E0009B
:1056800081FDFCCF0895CF92DF92EF92FF920F93AE
:105690001F93CF93DF93EC018B016A010E94A62C2C
:1056A000811133C0C114D10439F0F6018081918198
:1056B000081B190BC80FD91FE12CF12C011511057E
:1056C00019F18091E80085FD16C08091E8008E7781
:1056D0008093E800C114D10449F0F60180819181E2
:1056E000E80EF91EF182E08285E00FC00E94A62C30
:1056F000882321F30AC089918093F1000150110998
:10570000FFEFEF1AFF0ADACF80E0DF91CF911F9110
:105710000F91FF90EF90DF90CF9008952091860336
:10572000309187032617370748F06115710539F462
:105730002091E8002E772093E80001C0B90140E0F5
:1057400061157105A9F120917F03222309F443C05B
:10575000253009F442C02091E80023FD40C020918B
:10576000E80022FD32C02091E80020FFE9CF4091FF
:10577000F3002091F20030E0342BFC01CF016115E1
:10578000710559F02830310540F481918093F10082
:10579000615071092F5F3F4FF1CF41E02830310553
:1057A00009F040E02091E8002E772093E800C8CF70
:1057B0004111C9CF0AC080917F03882361F08530F1
:1057C00061F08091E80083FD0AC08091E80082FFCB
:1057D000F2CF80E0089582E0089583E0089581E0AB
:1057E000089520918603309187032617370748F0E4
:1057F0006115710539F42091E8002E772093E800B7
:1058000001C0B901FC0120E06115710591F18091A1
:105810007F03882309F440C0853009F43FC080919C
:10582000E80083FD3DC08091E80082FD2FC080919B
:10583000E80080FFE9CF2091F3008091F20090E032
:10584000922B6115710559F08830910540F424912F
:105850002093F1003196615071090196F2CF21E059
:10586000089709F020E08091E8008E778093E800A7
:10587000CBCF2111CCCF0AC080917F03882361F068
:10588000853061F08091E80083FD0AC08091E800D6
:1058900082FFF2CF80E0089582E0089583E00895CA
:1058A00081E00895982F973058F59093E900981764
:1058B00039F07091EC002091ED005091F00003C0A0
:1058C000242F762F50E021FF19C03091EB003E7F4E
:1058D0003093EB003091ED003D7F3093ED0030913F
:1058E000EB0031603093EB007093EC002093ED00FF
:1058F0005093F0002091EE0027FF07C09F5FD3CFA9
:105900008F708093E90081E0089580E00895809190
:10591000800387FF11C08091E80082FD05C080915F
:105920007F038111F8CF11C08091E8008B770BC005
:1059300080917F03882349F08091E80080FFF8CFB1
:105940008091E8008E778093E80008952091E4002C
:105950003091E50095E64091EC00842F817040FF86
:1059600022C08091E80080FD1CC080917F038823C5
:1059700091F0853091F08091EB0085FD10C0409151
:10598000E4005091E5004217530729F39A01915022
:1059900011F784E0089582E0089583E0089581E09E
:1059A000089580E008954091E80042FFDECF089519
:1059B0000E94462D0E944E2DE0EEF0E08081816035
:1059C0008083E8EDF0E080818F77808319BCA7EDBC
:1059D000B0E08C918E7F8C9380818F7E808310923B
:1059E0007E0308950F931F93CF93DF930E94462D5C
:1059F0000E944E2DC8EDD0E088818F778883888102
:105A00008068888388818F7D888319BC10927F038A
:105A100010927B0310927D0310927C0300EE10E045
:105A2000F80180818B7F808388818160888342E058
:105A300060E080E00E94522CE1EEF0E080818E7FF9
:105A40008083E2EEF0E080818160808380818860E5
:105A50008083F80180818E7F808388818061888344
:105A6000DF91CF911F910F910895E8EDF0E08081D3
:105A70008F7E8083E7EDF0E080818160808384E029
:105A800082BF81E080937E030C94F22CE8EDF0E07D
:105A900080818E7F80831092E20008951092DA0058
:105AA0001092E10008951F920F920FB60F921124E9
:105AB0002F933F934F935F936F937F938F939F9316
:105AC000AF93BF93EF93FF938091E10082FF0BC0F0
:105AD0008091E20082FF07C08091E1008B7F80937C
